:020000040000FA
:100000000C9452010C9483010C9483010C94830191
:100010000C9483010C9483010C9483010C94830150
:100020000C9483010C9483010C9483010C94830140
:100030000C9483010C94EE070C9483010C948301BF
:100040000C9483010C9483010C9483010C94830120
:100050000C9483010C9483010C9483010C94A407E9
:100060000C9483010C9483010C9483010C94830100
:100070000C9483010C9483010C9483010C948301F0
:100080000C9483010C9483010C9483010C948301E0
:100090000C9483010C9483010C9483010C948301D0
:1000A0000C9483010C9483010C9483010C948301C0
:1000B0000C9483010C9483010C9483010C948301B0
:1000C0000C9483010C9483010C9483010C948301A0
:1000D0000C9483010C9483010C9483010C94830190
:1000E0000C9483010C94AD010C943A070C94A90173
:1000F0000C94F2060C949F070C9446070C94E301B1
:100100000C9410070C946E050C94E4010C947B077E
:100110000C94B8010C9493070C9455030C9463074A
:100120000C941C070C946F070C94E8010C94DE01EE
:100130000C942E070C9425070C94F8060C94D0010F
:100140000C94FE0B0C9428030C94C2010C94BE0179
:100150000C9404070C94D6010C94DE060C948707CB
:100160000C94B5010C94DA010C9452070C94B10173
:100170000C94CC010C94A3010C94C8010C9456036C
:100180000200002100240027002A002D0030003347
:100190000001010000040107010A010000220025FE
:1001A0000028002B002E0031003400020100000561
:1001B0000108010B01000020002300260029002C6B
:1001C000002F0032000001000003010601090105B3
:1001D000050505070508080808020202020A0A08C0
:1001E00008040404040101010101010101030303E6
:1001F0000303030303040707070C0C0C0C0C0C0C83
:100200000C0202020206060606060606060B0B0B89
:100210000B0B0B0B0B0102102020080810204010C4
:1002200020408002010201080402010102040810BA
:1002300020408080402010080402018004020180D8
:100240004020100804020108040201010204081001
:10025000204080010204081020408000000A0B02A8
:10026000090C0D0E08070304010000000000000047
:10027000000000000000000000000000000000007E
:10028000000000000000001211100000000000003B
:10029000000000000000000000000000000000005E
:1002A0000000FE0B11241FBECFEFD1E2DEBFCDBF99
:1002B00000E00CBF12E0A0E0B2E0EAEBF0E200E008
:1002C0000BBF02C007900D92A63EB107D9F723E0FD
:1002D000A6EEB2E001C01D92AF32B207E1F711E025
:1002E000C2E5D1E000E006C021970109802FFE01A0
:1002F0000E94360EC135D10780E00807A9F70E9499
:100300004E080C945B100C9400008150823108F070
:100310005AC0E82FF0E08827EF56FE4F8F4F0C941D
:10032000360EB101B501A301A901AD01E301B80188
:10033000BE01C201C801CC01D001D601DA01E3013E
:10034000DE01E401E801809180008F7780938000D6
:100350000895809180008F7DF9CF80918000877F04
:10036000F5CF84B58F7784BD089584B58F7DFBCF9D
:100370008091B0008F778093B00008958091B00095
:100380008F7DF9CF809190008F77809390000895B2
:10039000809190008F7DF9CF80919000877FF5CF7D
:1003A0008091A0008F778093A00008958091A00095
:1003B0008F7DF9CF8091A000877FF5CF80912001BC
:1003C0008F77809320010895809120018F7DF9CF50
:1003D00080912001877FF5CFCF93DF93282F30E0E6
:1003E000F901E55AFD4F8491F901EB5EFD4FD4917F
:1003F000F901E153FE4FC491CC23A1F081110E9479
:100400008501EC2FF0E0EE0FFF1FEB54FE4FA5919E
:10041000B491EC91ED2381E090E009F480E0DF916C
:10042000CF91089580E090E0FACF1F93CF93DF93B0
:10043000282F30E0F901E55AFD4F8491F901EB5E78
:10044000FD4FD491F901E153FE4FC491CC23A9F0A3
:10045000162F81110E948501EC2FF0E0EE0FFF1F97
:10046000E556FE4FA591B4918FB7F894EC91111118
:1004700008C0D095DE23DC938FBFDF91CF911F9111
:100480000895DE2BF8CFCF93DF9390E0FC01EB5E75
:10049000FD4F249181539E4FFC0184918823D1F01C
:1004A00090E0880F991FFC01EF57FE4FA591B49182
:1004B000FC01E556FE4FC591D491623071F49FB7AF
:1004C000F8943C91822F809583238C93E8812E2B86
:1004D00028839FBFDF91CF9108958FB7F894EC9157
:1004E0002E2B2C938FBFF6CF90917B00977F90930C
:1004F0007B008653806480937C0080917A008064C6
:1005000080937A0080917A0086FDFCCF80917800FC
:100510009091790008953FB7F89480910E039091DF
:100520000F03A0911003B091110326B5A89B05C03D
:100530002F3F19F00196A11DB11D3FBFBA2FA92F62
:10054000982F8827BC01CD01620F711D811D911D5F
:1005500042E0660F771F881F991F4A95D1F70895CB
:100560008F929F92AF92BF92CF92DF92EF92FF92C3
:100570006B017C010E948B024B015C01C114D10410
:10058000E104F104B9F00E948B02681979098A0923
:100590009B09683E73408105910580F321E0C21AF2
:1005A000D108E108F10888EE880E83E0981EA11CAE
:1005B000B11CE4CFFF90EF90DF90CF90BF90AF9051
:1005C0009F908F9008959091000289130DC0E0E8EC
:1005D000F1E0E4919FEF90930002E230E1F038F413
:1005E000EE2381F0E13089F060E00C941502E430F4
:1005F00049F110F1E530C1F7909173009D7F909320
:100600007300F2CF10926E00EFCF90916F009D7F3C
:1006100090936F00E9CF909170009D7F9093700050
:1006200091E09093B0009091B100987F9460909386
:10063000B1001092B300D8CF909171009D7F90933C
:100640007100D2CF909172009D7F90937200CCCFB9
:10065000AF92BF92CF92DF92EF92FF920F931F93D0
:10066000CF93DF936C017B018B01040F151FEB010E
:100670005E01AE18BF08C017D10759F06991D601C5
:10068000ED91FC910190F081E02DC6011995892B27
:1006900079F7C501DF91CF911F910F91FF90EF90F6
:1006A000DF90CF90BF90AF900895089590E080E0E4
:1006B000089590910102992319F061E00C941502BC
:1006C000089560E00C941502FC0101900020E9F708
:1006D0003197AF01481B590BBC0183E193E00C94A7
:1006E00028038F929F92AF92BF920F931F93CF9345
:1006F000DF93CDB7DEB7A1970FB6F894DEBF0FBE7C
:10070000CDBF19A2423008F44AE08E010F5D1F4FA1
:10071000842E912CB12CA12CA50194010E945F0D77
:10072000E62FB901CA01EA30F4F4E05DD801EE9396
:100730008D01232B242B252B79F790E080E0109757
:1007400019F0CD010E946403A1960FB6F894DEBFA4
:100750000FBECDBFDF91CF911F910F91BF90AF9092
:100760009F908F900895E95CE1CF0C94640361E061
:100770008AE00E94430260E08AE00E94150261E084
:1007800089E00E94430260E089E00E94150261E076
:1007900088E00E94430260E088E00C941502CF9349
:1007A000DF93EC0160E08E810E94150261E08E8192
:1007B0000E94150260E08E810E9415028BE891E094
:1007C0000197F1F7DF91CF910895CF92DF92EF92E9
:1007D000FF920F931F93CF93DF936C017C0187E00F
:1007E000E80EF11CD0E0C0E0062F10E0B8010C2E9E
:1007F00002C0759567950A94E2F76170F7018191DF
:100800007F010E9415022196C430D10579F7C601F7
:10081000DF91CF911F910F91FF90EF90DF90CF90DC
:100820000C94CF03CF92DF92EF92FF920F931F931E
:10083000CF93DF93EC01F62E642F8C810E9415027A
:100840008D818F3F19F060E00E9415020F2D10E09E
:100850008F8584FF25C06E0187E0C80ED11CF12C66
:10086000E12CB8010E2C02C0759567950A94E2F749
:100870006170F60181916F010E941502FFEFEF1A7E
:10088000FF0A88E0E816F10461F7CE01DF91CF910D
:100890001F910F91FF90EF90DF90CF900C94CF03BA
:1008A000B80184E0759567958A95E1F7CE010E94BD
:1008B000E5036F2DCE01DF91CF911F910F91FF9036
:1008C000EF90DF90CF900C94E50340E0682F83E138
:1008D00093E00C94120481E00E9465048BE39FE195
:1008E0000197F1F70895CF93DF93823029F4909127
:1008F000220398609093220380932603109227038B
:1009000080E48093280380E18093290380E580932D
:100910002A0361E0809117030E944302809118032B
:100920008F3F19F061E00E94430261E0809119035A
:100930000E944302C3E1D3E09E01235133408091E2
:10094000220384FD0BC084E090E02196281739072C
:1009500044F461E08E810E944302EECF88E090E093
:10096000F4CF8BE39DE00197F1F760E080911703EE
:100970000E94150260E0809119030E941502809187
:1009800018038F3F19F060E00E9415028091220346
:1009900084FD34C063E083E193E00E94E503CBE48F
:1009A000D6E4CE010197F1F763E083E193E00E9482
:1009B000E5032197F1F763E083E193E00E94E5030B
:1009C00083E592E00197F1F762E083E193E00E9412
:1009D000E5038091220380620E94650484E0809395
:1009E00023038CE00E9465040E946B0482E08093E4
:1009F000240386E0DF91CF910C94650480620E940D
:100A000065048BE496E40197F1F7809122038062FC
:100A10000E94650483E592E00197F1F7809122033B
:100A200080620E946504D5CF643008F063E0909145
:100A30002603691710F06FEF690FE62FF0E0ED5E07
:100A4000FC4F9489890F80680C946504CF93DF93E1
:100A5000D82F87E30E947402C1E08F3F910511F007
:100A60000CF0C0E0209107032C1306C0D1112EC05A
:100A70008C2FDF91CF9108958F3F910509F074F489
:100A800086E00E9459030E946B0484E192E00E9478
:100A9000B50361E080E00E941405EACF86E00E9481
:100AA00061030E946B04D111E3CF80E292E00E94C7
:100AB000B50361E080E00E94140568EE73E080E019
:100AC00090E00E94B0020E946B04D2CF8F3F91054C
:100AD000B9F2B4F286E00E946103F5CF41E00E94D2
:100AE000120481E090E00895CF92DF92EF92FF929E
:100AF0006C01990FEE08FF08F7FE16C041E06DE2A9
:100B000083E193E00E94120466277727CB016C19DA
:100B10007D098E099F094AE00E9471030196FF90AA
:100B2000EF90DF90CF9008954AE0C701B601FF90A3
:100B3000EF90DF90CF900C9471038F929F92AF92C1
:100B4000BF92CF92DF92EF92FF92CF9388E30E9401
:100B50007402BC01990F880B990B0E94230C2AE0A8
:100B600038E240EA5BE30E94820C20E030E048EC8F
:100B700052E40E94820C6B017C01C1E020E030E075
:100B800048EC51E40E942C0E18160CF0C0E020E056
:100B900030E048EC51E4C701B6010E942C0E181653
:100BA0000CF0AAC083E10E9459030E946B048FE2FB
:100BB00092E00E94B503A7019601C701B6010E9409
:100BC000310E882309F18AE392E00E94640386E4EF
:100BD00092E00E94B50361E080E00E94140589E480
:100BE00092E00E94B5036CE271E080E090E00E9428
:100BF000B0028C2FCF91FF90EF90DF90CF90BF90FD
:100C0000AF909F908F90089546015701E894B7F8F0
:100C10002FEF3FEF4FE75FE7C501B4010E94310EB0
:100C200081110DC02FEF3FEF4FE75FE7C501B40122
:100C30000E941C0C18161CF48EE392E0C6CF2FEF16
:100C40003FEF4FE75FE4C701B6010E942C0E181674
:100C50001CF482E492E0B9CF2FEF3FEF4FE75FEC57
:100C6000C701B6010E941C0C87FDF3CF20E030E0E5
:100C7000A901C701B6010E941C0C87FF0AC041E010
:100C80006DE283E193E00E941204F7FAF094F7F822
:100C9000F0942DEC3CEC4CE45DE3C701B6010E94FE
:100CA000910D4B015C010E94FD0D6B017C010E94C6
:100CB000210C9B01AC01C501B4010E94900D4B01B8
:100CC0005C014AE0C701B6010E94710341E06EE297
:100CD00083E193E00E94120420E030E040E251E41E
:100CE000C501B4010E94820C0E94FD0D90E080E0DD
:100CF0004AE00E9471036BCF83E10E9461038091FF
:100D00001203882309F475CF0E946B0472CFCF932E
:100D1000DF93D82F85E10E94EC01C1E0009709F034
:100D2000C0E0209108032C1302C0DD2361F0892B61
:100D300071F40E94B7030E946B0468E270E080E0E7
:100D400090E00E94B0028C2FDF91CF91089582E154
:100D50000E94610361E08AE00E94430261E08AE050
:100D60000E94150261E089E00E94430260E089E090
:100D70000E94150261E088E00E944302E3E6F2E08F
:100D8000E491E150E23108F0DAC0F0E08827E45362
:100D9000F94F8F4F0C94360EDE06F206F806040764
:100DA00010079F071C0725072E073A07460752071B
:100DB00063076F079F077B078707930784B58068E2
:100DC00084BD84E687BD0E946B0484E592E00E94A6
:100DD000B50361E080E00E94140585E692E00E9480
:100DE000B503B1CF84B5806284BD84E688BDEBCF06
:100DF0008091800080688093800084E690E09093EA
:100E0000890080938800DFCF80918000806280938A
:100E1000800084E690E090938B0080938A00D3CF8B
:100E20008091800088608093800084E690E09093B9
:100E30008D0080938C00C7CF8091B0008068809334
:100E4000B00084E68093B300BECF8091B000806292
:100E50008093B00084E68093B400B5CF8091900079
:100E600080688093900084E690E09093990080934E
:100E70009800A9CF8091900080628093900084E6D2
:100E800090E090939B0080939A009DCF809190007A
:100E900088608093900084E690E090939D0080931A
:100EA0009C0091CF8091A00080688093A0008091E9
:100EB000A0008F7B8093A00084E690E09093A9002F
:100EC0008093A80080CF8091A00080628093A000D2
:100ED00084E690E09093AB008093AA0074CF809159
:100EE000A00088608093A00084E690E09093AD001D
:100EF0008093AC0068CF80912001806880932001AE
:100F000084E690E090932901809328015CCF809142
:100F1000200180628093200184E690E090932B0171
:100F200080932A0150CF8091200188608093200116
:100F300084E690E090932D0180932C0144CF60E0F3
:100F400088E00E9415023FCF1F920F920FB60F92BA
:100F500011242F933F938F939F93AF93BF938091CF
:100F60000A0390910B03A0910C03B0910D033091F3
:100F7000090323E0230F2D3758F50196A11DB11D5C
:100F80002093090380930A0390930B03A0930C030F
:100F9000B0930D0380910E0390910F03A091100365
:100FA000B09111030196A11DB11D80930E03909382
:100FB0000F03A0931003B0931103BF91AF919F91C2
:100FC0008F913F912F910F900FBE0F901F9018950A
:100FD00026E8230F0296A11DB11DD2CF1F920F92BA
:100FE0000FB60F9211240BB60F922F933F934F938E
:100FF0005F936F937F938F939F93AF93BF93EF9381
:10100000FF938091FA029091FB02A091FC02B091B3
:10101000FD02892B8A2B8B2BE1F19091E902E09163
:10102000EA02F091EB028081892780838091FA02A5
:101030009091FB02A091FC02B091FD0218161906D6
:101040001A061B069CF48091FA029091FB02A09173
:10105000FC02B091FD020197A109B1098093FA0247
:101060009093FB02A093FC02B093FD02FF91EF91DD
:10107000BF91AF919F918F917F916F915F914F91B0
:101080003F912F910F900BBE0F900FBE0F901F90AE
:101090001895809100020E94E302E8CF789484B50D
:1010A000826084BD84B5816084BD85B5826085BD64
:1010B00085B5816085BD80916E00816080936E00F2
:1010C00010928100809181008260809381008091E4
:1010D0008100816080938100809180008160809395
:1010E00080008091B10084608093B1008091B00055
:1010F00081608093B0008091910082608093910024
:101100008091910081608093910080919000816036
:10111000809390008091A10082608093A1008091D3
:10112000A10081608093A1008091A00081608093E4
:10113000A000809121018260809321018091210192
:101140008160809321018091200181608093200142
:1011500080917A00846080937A0080917A00826026
:1011600080937A0080917A00816080937A008091E8
:101170007A00806880937A001092C10062E085E175
:101180000E94430262E08EE00E94430262E081E13D
:101190000E94430261E082E10E94430261E083E138
:1011A0000E94430261E08BE00E94430261E086E01E
:1011B0000E94430261E08DE00E94430282E00E94AF
:1011C000730461E08AE00E94430261E089E00E94CA
:1011D000430261E088E00E94430281E00E948706AA
:1011E0008093080381E00E942605809307030E94F4
:1011F0009D058093120368E170E090E080E00E941A
:101200006A0FEC01D12CC12C009741F0188264E7E1
:1012100072E00E945410A7E1CA2ED12C10E1F12CEB
:10122000E12C56018FE0A80EB11CAE14BF04BCF037
:101230000E946B0460E0812F0E941405A601BE018C
:1012400083E193E00E94280364E170E080E090E095
:101250000E94B002EFEFEE1AFE0A1150E6CF20977F
:1012600019F0CE010E94E10E0E946B04C5E0D0E0AF
:1012700080E992E00E94B50362E370E080E090E0D4
:101280000E94B0022197A1F70E946B04C3E0D0E056
:101290008CE892E00E94B50369E170E080E090E0A4
:1012A0000E94B0020E946B0469E170E080E090E06F
:1012B0000E94B002219761F76FE3A62E6FE1B62E70
:1012C00073EE872E71E0972E09E212E0E0E02E2EF9
:1012D000E0E03E2E44244A94542C320180E00E94E7
:1012E00087068093080380E00E9426058093070309
:1012F0000E949D058093120381E10E94EC01892BDD
:1013000009F060C00E946B048DE00E94610384E1DB
:101310000E94E3028DE00E94EC0121E0892B09F09C
:1013200020E02093060386E30E94740224E630E066
:10133000DC010E943E0E2FEF33E040E050E00E94BF
:10134000400D6901C901255031092530310508F0EA
:10135000D9C18BE00E9459030E946B048FEA92E08E
:101360000E94B50361E080E00E94140582EC92E0E7
:101370000E94B503C6010E9474056CE271E080E032
:1013800090E00E94B0028EE00E94EC01892B09F0EF
:1013900031C280910803882309F42CC2809106038E
:1013A000882309F427C280910102882309F422C20C
:1013B00082E10E9459032114310409F48FCF0E9465
:1013C00000008CCF0E946B0482E992E00E94B5037A
:1013D00061E080E00E94140581EA92E00E94B5037A
:1013E0008DE00E94590382E10E9461038091000216
:1013F000843131F5E0E8F1E0C491C7FD8BCF61E0C5
:1014000084E10E944302CC2309F4EBC0C23009F00E
:10141000FCC08091B100887F83608093B10089EF28
:101420008093B3004092FA025092FB026092FC0259
:101430007092FD02809170008260809370006ACF8C
:101440008F3F09F067CF84E180930002E0E8F1E08C
:10145000C4918C2FCF3F09F45DCFC23009F465C031
:1014600060F4CC2371F1C13009F442C087FD52CF42
:1014700061E084E10E944302C9CFC43009F494C002
:1014800008F474C0C53091F7109220011092210128
:1014900080912101886080932101809121018160E8
:1014A00080932101F4018491E82FF0E0EE0FFF1FFB
:1014B000E556FE4F85919491F80184918093E60260
:1014C0009ECF14BC15BC84B5826084BD85B5816097
:1014D00085BDF4018491E82FF0E0EE0FFF1FE55683
:1014E000FE4F85919491F80184918093ED0287CF0E
:1014F000109280001092810080918100886080931A
:10150000810080918100816080938100F401849149
:10151000E82FF0E0EE0FFF1FE556FE4F8591949106
:10152000F80184918093EC026ACF1092B00010927F
:10153000B1008091B00082608093B0008091B100D2
:1015400081608093B100F4018491E82FF0E0EE0F08
:10155000FF1FE556FE4F859194919093EB02809387
:10156000EA02F80184918093E90249CF1092900039
:1015700010929100809191008860809391008091F9
:101580009100816080939100F4018491E82FF0E054
:10159000EE0FFF1FE556FE4F85919491F80184915F
:1015A0008093E802C3E02BCF1092A0001092A1001C
:1015B0008091A10088608093A1008091A10081604A
:1015C0008093A100F4018491E82FF0E0EE0FFF1F5B
:1015D000E556FE4F85919491F80184918093E7023E
:1015E0000ECF85B5887F836085BD8CE787BD40922F
:1015F00002035092030360920403709205038091EA
:101600006E00826080936E0085CEC130C1F48091FF
:101610008100887F816080938100B0928900A092D0
:1016200088004092FE025092FF0260920003709286
:10163000010380916F00826080936F006BCEC33096
:10164000C1F480919100887F816080939100B09275
:101650009900A09298004092F6025092F702609290
:10166000F8027092F902809171008260809371009B
:1016700051CEC430C1F48091A100887F81608093F5
:10168000A100B092A900A092A8004092F20250924C
:10169000F3026092F4027092F5028091720082600F
:1016A0008093720037CEC530C1F480912101887FCC
:1016B000816080932101B0922901A092280140927B
:1016C000EE025092EF026092F0027092F10280916D
:1016D00073008260809373001DCEC23089F034F4B1
:1016E000CC2361F0C13009F015CE97CFC43049F258
:1016F0000CF4ADCFC53009F00DCEDDCF8FE376CF42
:101700008FE38ECE96012150310924303105A0F5AA
:101710000E946B048FEA92E00E94B50361E080E0D2
:101720000E9414058EEB92E00E94B503C6010E9450
:1017300074058BE00E94610361E370E080E090E05B
:101740000E94B0028BE00E94590361E370E080E0E8
:1017500090E00E94B0028BE00E94610361E370E0C0
:1017600080E090E00E94B0028BE00E94590361E3A8
:1017700070E080E090E005CE181619062CF110926A
:1017800001028BE00E94610386E00E9461038DE00C
:101790000E94610383E10E94610384E10E94E302ED
:1017A00082E10E9461030E94B7030E946B048CECEB
:1017B00092E00E94B50361E080E00E94140588ED8C
:1017C00092E00E94B503DFCD0B970CF4DCCD809145
:1017D0000102811109C00E946B0481E08093010223
:1017E0008BE00E946103CFCD8BE00E94EC01892B3E
:1017F00091F7F3CF82E10E946103DDCDE3E1F3E0F5
:10180000138212828CE092E0918380838CE0848347
:101810008FEF858387E0868385E0878384E08087F8
:1018200083E0818782E08287138614861586168678
:10183000178681E00C9473040E945E0C08F481E02A
:101840000895E89409C097FB3EF4909580957095B3
:1018500061957F4F8F4F9F4F9923A9F0F92F96E9FC
:10186000BB279395F695879577956795B795F11171
:10187000F8CFFAF4BB0F11F460FF1BC06F5F7F4F0E
:101880008F4F9F4F16C0882311F096E911C0772320
:1018900021F09EE8872F762F05C0662371F096E829
:1018A000862F70E060E02AF09A95660F771F881FF8
:1018B000DAF7880F9695879597F90895990F00089C
:1018C000550FAA0BE0E8FEEF16161706E807F90712
:1018D000C0F012161306E407F50798F0621B730BAD
:1018E000840B950B39F40A2661F0232B242B252B2E
:1018F00021F408950A2609F4A140A6958FEF811DD1
:10190000811D08950E94950C0C94060D0E94F80C00
:1019100038F00E94FF0C20F0952311F00C94EF0C8E
:101920000C94F50C11240C943A0D0E94170D70F3D1
:10193000959FC1F3950F50E0551F629FF001729F74
:10194000BB27F00DB11D639FAA27F00DB11DAA1F83
:10195000649F6627B00DA11D661F829F2227B00DD0
:10196000A11D621F739FB00DA11D621F839FA00D5B
:10197000611D221F749F3327A00D611D231F849FAB
:10198000600D211D822F762F6A2F11249F57504002
:101990009AF0F1F088234AF0EE0FFF1FBB1F661F7D
:1019A000771F881F91505040A9F79E3F510580F046
:1019B0000C94EF0C0C943A0D5F3FE4F3983ED4F393
:1019C000869577956795B795F795E7959F5FC1F7EA
:1019D000FE2B880F911D9695879597F9089597F995
:1019E0009F6780E870E060E008959FEF80EC0895C5
:1019F00000240A94161617061806090608950024EE
:101A00000A9412161306140605060895092E039467
:101A1000000C11F4882352F0BB0F40F4BF2B11F4DB
:101A200060FF04C06F5F7F4F8F4F9F4F089557FD3A
:101A30009058440F551F59F05F3F71F04795880F3C
:101A400097FB991F61F09F3F79F0879508951216D3
:101A500013061406551FF2CF4695F1DF08C016167F
:101A600017061806991FF1CF869571056105089430
:101A70000895E894BB2766277727CB0197F9089547
:101A8000052E97FB1EF400940E94570D57FD07D0BA
:101A90000E945F0D07FC03D04EF40C94570D509537
:101AA0004095309521953F4F4F4F5F4F089590954A
:101AB0008095709561957F4F8F4F9F4F0895A1E25C
:101AC0001A2EAA1BBB1BFD010DC0AA1FBB1FEE1FB8
:101AD000FF1FA217B307E407F50720F0A21BB30B03
:101AE000E40BF50B661F771F881F991F1A9469F77F
:101AF00060957095809590959B01AC01BD01CF01DB
:101B00000895A29FB001B39FC001A39F700D811DD6
:101B10001124911DB29F700D811D1124911D0895F6
:101B20005058BB27AA270E94A80D0C94060D0E94AE
:101B3000F80C38F00E94FF0C20F039F49F3F19F4A4
:101B400026F40C94F50C0EF4E095E7FB0C94EF0CE6
:101B5000E92F0E94170D58F3BA176207730784071D
:101B6000950720F079F4A6F50C94390D0EF4E09564
:101B70000B2EBA2FA02D0B01B90190010C01CA0147
:101B8000A0011124FF27591B99F0593F50F4503EF2
:101B900068F11A16F040A22F232F342F4427585FE4
:101BA000F3CF469537952795A795F0405395C9F7FC
:101BB0007EF41F16BA0B620B730B840BBAF09150B4
:101BC000A1F0FF0FBB1F661F771F881FC2F70EC053
:101BD000BA0F621F731F841F48F487957795679526
:101BE000B795F7959E3F08F0B0CF9395880F08F012
:101BF0009927EE0F9795879508950E941F0D88F0FD
:101C00009F5798F0B92F9927B751B0F0E1F0660FC0
:101C1000771F881F991F1AF0BA95C9F714C0B13001
:101C200091F00E94390DB1E008950C94390D672FA1
:101C3000782F8827B85F39F0B93FCCF38695779530
:101C40006795B395D9F73EF4909580957095619519
:101C50007F4F8F4F9F4F08950E945E0C08F48FEFC7
:101C600008950E945E0C880B990B0895EE0FFF1FDC
:101C7000881F8BBF0790F691E02D19940E94810D6B
:101C8000B7FF0895821B930B08950F931F93CF9373
:101C9000DF938230910510F482E090E0E0912D0313
:101CA000F0912E0330E020E0B0E0A0E0309799F40E
:101CB0002115310509F44AC0281B390B24303105A0
:101CC000D8F58A819B816115710589F1FB019383A8
:101CD0008283FE0111C04081518102811381481726
:101CE0005907E0F04817590799F4109761F01296D8
:101CF0000C93129713961C933296CF01DF91CF91DC
:101D00001F910F91089500932D0310932E03F4CF8C
:101D10002115310551F04217530738F0A901DB01B5
:101D20009A01BD01DF01F801C1CFEF01F9CF909316
:101D30002E0380932D03CDCFFE01E20FF31F81937D
:101D400091932250310939832883D7CF20912B03D7
:101D500030912C03232B41F4209104023091050291
:101D600030932C0320932B03209102023091030225
:101D70002115310541F42DB73EB74091060250912F
:101D80000702241B350BE0912B03F0912C03E21783
:101D9000F307A0F42E1B3F0B2817390778F0AC018E
:101DA0004E5F5F4F2417350748F04E0F5F1F50936B
:101DB0002C0340932B03819391939FCFF0E0E0E0BD
:101DC0009CCFCF93DF930097E9F0FC013297138209
:101DD0001282A0912D03B0912E03ED0130E020E09E
:101DE0001097A1F420813181820F931F20912B0342
:101DF00030912C032817390709F061C0F0932C03A8
:101E0000E0932B03DF91CF910895EA01CE17DF070E
:101E1000E8F54A815B819E0141155105B1F7E90161
:101E2000FB83EA8349915991C40FD51FEC17FD0735
:101E300061F4808191810296840F951FE901998355
:101E40008883828193819B838A83F0E0E0E012960D
:101E50008D919C9113970097B9F52D913C91119715
:101E6000CD010296820F931F20912B0330912C03FA
:101E70002817390739F6309751F510922E03109232
:101E80002D03B0932C03A0932B03BCCFD383C28329
:101E900040815181840F951FC817D90761F44E5FA7
:101EA0005F4F88819981480F591F518340838A81F0
:101EB0009B81938382832115310509F0B0CFF09384
:101EC0002E03E0932D039ECFFD01DC01C0CF1382D2
:101ED0001282D7CF4F925F926F927F928F929F9292
:101EE000AF92BF92CF92DF92EF92FF920F931F9328
:101EF000CF93DF938C01009799F4CB01DF91CF91C1
:101F00001F910F91FF90EF90DF90CF90BF90AF9017
:101F10009F908F907F906F905F904F900C94450EA4
:101F2000FC01E60FF71F9C0122503109E217F3076D
:101F300008F4AEC0D901CD91DC911197C617D7072F
:101F400020F1C530D10578F0CE01049786179707A8
:101F500050F0C61BD70B2297C193D1936D937C93FE
:101F6000CF010E94E10EC801DF91CF911F910F9127
:101F7000FF90EF90DF90CF90BF90AF909F908F90A9
:101F80007F906F905F904F9008955B01AC1ABD0AEF
:101F90004C018C0E9D1EA0912D03B0912E03512C4F
:101FA000412CF12CE12C109731F580912B0390916D
:101FB0002C038815990509F05CC04616570608F0F1
:101FC00058C08091020290910302009741F48DB7AE
:101FD0009EB74091060250910702841B950BE817AB
:101FE000F90708F055C0F0932C03E0932B03F90197
:101FF00071836083B8CF8D919C91119712966C90EC
:10200000129713967C901397A815B90559F56C0192
:1020100042E0C40ED11CCA14DB0420F1AC014A1901
:102020005B09DA011296159780F062827382518300
:102030004083D9016D937C93E114F10471F0D701D1
:102040001396FC93EE9312978ECF22968C0F9D1FC2
:10205000F90191838083F301EFCFF0932E03E09396
:102060002D0381CF4816590608F42C017D01D301B8
:102070009ACFCB010E94450E7C01009749F0AE013A
:10208000B8010E944B10C8010E94E10E87016BCF7E
:1020900010E000E068CFFB01DC0102C001900D926E
:1020A00041505040D8F70895FB01DC0101900D929A
:1020B0000020E1F70895F894FFCFFF0100002F03FF
:1020C0008000000000006E0528035603550346619A
:1020D000726C6172204163696B004661726C61725F
:1020E000204B6170616E646900536963616B6C6958
:1020F0006B3A20006E616E00696E66006F76660056
:102100002043004B6C696D61204163696B00557918
:102110006172693A204B617069204163696B004DBF
:102120006F746F722043616C69736D617A002D3E2C
:102130002020484F532047454C44494E495A203AA5
:102140002920203C2D002E2E2E2E2E00456D6E694E
:10215000796574204B656D6572690054616B696CBB
:102160006920446567696C210059616B697420536B
:102170006576697965736900436F6B204475737583
:102180006B202D20250059616B697420426974749D
:1021900069004D6F746F72204B6170616E646900ED
:020000040003F7
:10E000000D9489F10D94B2F10D94B2F10D94B2F129
:10E010000D94B2F10D94B2F10D94B2F10D94B2F1F0
:10E020000D94B2F10D94B2F10D94B2F10D94B2F1E0
:10E030000D94B2F10D94B2F10D94B2F10D94B2F1D0
:10E040000D94B2F10D94B2F10D94B2F10D94B2F1C0
:10E050000D94B2F10D94B2F10D94B2F10D94B2F1B0
:10E060000D94B2F10D94B2F10D94B2F10D94B2F1A0
:10E070000D94B2F10D94B2F10D94B2F10D94B2F190
:10E080000D94B2F10D94B2F10D94B2F10D94B2F180
:10E090000D94B2F10D94B2F10D94B2F10D94B2F170
:10E0A0000D94B2F10D94B2F10D94B2F10D94B2F160
:10E0B0000D94B2F10D94B2F10D94B2F10D94B2F150
:10E0C0000D94B2F10D94B2F10D94B2F10D94B2F140
:10E0D0000D94B2F10D94B2F10D94B2F10D94B2F130
:10E0E0000D94B2F141546D656761323536300041AF
:10E0F000726475696E6F206578706C6F72657220DE
:10E1000073746B3530305632206279204D4C530099
:10E11000426F6F746C6F616465723E004875683F52
:10E1200000436F6D70696C6564206F6E203D200048
:10E130004350552054797065202020203D20005FF9
:10E140005F4156525F415243485F5F3D2000415658
:10E1500052204C696243205665723D20004743437C
:10E160002056657273696F6E203D20004350552024
:10E1700049442020202020203D20004C6F7720663D
:10E18000757365202020203D20004869676820665F
:10E190007573652020203D200045787420667573D6
:10E1A00065202020203D20004C6F636B2066757336
:10E1B000652020203D20004D617220203720323024
:10E1C000313300312E362E3800342E332E350056A2
:10E1D00023202020414444522020206F7020636F70
:10E1E00064652020202020696E73747275637469E1
:10E1F0006F6E2061646472202020496E74657272B3
:10E20000757074006E6F20766563746F7200726A49
:10E210006D702020006A6D70200057686174207056
:10E220006F72743A00506F7274206E6F7420737541
:10E2300070706F72746564004D7573742062652030
:10E2400061206C6574746572002000577269747483
:10E25000696E672045450052656164696E672045B7
:10E26000450045452065727220636E743D00504F35
:10E27000525400303D5A65726F2061646472003FF1
:10E280003D43505520737461747300403D454550C3
:10E29000524F4D207465737400423D426C696E6B41
:10E2A000204C454400453D44756D70204545505215
:10E2B0004F4D00463D44756D7020464C415348001B
:10E2C000483D48656C70004C3D4C69737420492F83
:10E2D0004F20506F72747300513D51756974005234
:10E2E0003D44756D702052414D00563D73686F7707
:10E2F00020696E7465727275707420566563746FF0
:10E30000727300593D506F727420626C696E6B00BD
:10E310002A0011241FBECFEFD1E2DEBFCDBF01E046
:10E320000CBF12E0A0E0B2E0EEE1FDEF03E00BBFB6
:10E3300002C007900D92A030B107D9F712E0A0E01B
:10E34000B2E001C01D92AE30B107E1F70F9460F367
:10E350000D948DFE01E20EBF0FEF0DBF11241FBE05
:10E360000D9460F30D9400F020E030E040ED57E0B4
:10E3700005C0FA013197F1F72F5F3F4F2817390792
:10E38000C0F308959C01260F311DC901A0E0B0E043
:10E390002F5F3F4FABBFFC018791882361F08093D3
:10E3A000C6008091C00086FFFCCF8091C0008064D1
:10E3B0008093C000EACF08958DE08093C6008091DD
:10E3C000C00086FFFCCF8091C00080648093C000B5
:10E3D0008AE08093C6008091C00086FFFCCF8091C8
:10E3E000C00080648093C00008950F94C2F10F9420
:10E3F000DCF10895FC019081992359F09093C600B7
:10E400008091C00086FFFCCF8091C0008064809323
:10E41000C0003196992379F70895282F982F929567
:10E420009F70892F805D8A3308F0895F8093C600D2
:10E430008091C00086FFFCCF8091C00080648093F3
:10E44000C000822F8F70982F905D9A3308F0995FEB
:10E450009093C6008091C00086FFFCCF8091C000E1
:10E4600080648093C00008959C01FB01853691056E
:10E470001CF46330710594F0C90164E670E00F94F8
:10E480002EFE605D7F4F6093C6008091C00086FFC6
:10E49000FCCF8091C00080648093C0002B30310598
:10E4A00014F43297B4F0C90164E670E00F942EFEC4
:10E4B0006AE070E00F942EFE605D7F4F6093C600AF
:10E4C0008091C00086FFFCCF8091C0008064809363
:10E4D000C000C9016AE070E00F942EFEC0968093E0
:10E4E000C6008091C00086FFFCCF8091C000806490
:10E4F0008093C00008951F93182F8EE692EE60E07F
:10E500000F94C2F11093C6008091C00086FFFCCF2B
:10E510008091C00080648093C0000F94DCF11F9153
:10E5200008952F923F924F925F926F927F928F92B7
:10E530009F92AF92BF92CF92DF92EF92FF920F9392
:10E540001F93DF93CF93CDB7DEB762970FB6F894E2
:10E55000DEBF0FBECDBF382E622ECA01DB015C01CB
:10E560006D01772420E2222E2E010894411C511CBB
:10E570008BC081E0A81680E0B80681E0C80680E084
:10E58000D80628F0C601AA27BB270F940DF2BB2797
:10E59000AD2D9C2D8B2D0F940DF28A2D0F940DF225
:10E5A0002092C6008091C00086FFFCCF8091C00001
:10E5B00080648093C0009DE29093C6008091C0006B
:10E5C00086FFFCCF8091C00080648093C0002092C1
:10E5D000C6008091C00086FFFCCF8091C00080649F
:10E5E0008093C00019828601750188249924A1E0D6
:10E5F0003A1651F03A1620F0B2E03B1661F409C029
:10E600000BBFF701779007C0C7010F9477FE782EF4
:10E6100002C0F7017080872D0F940DF22092C60082
:10E620008091C00086FFFCCF8091C0008064809301
:10E63000C000872D8052F401EF70F0708F3520F408
:10E64000E40DF51D708204C0E40DF51D8EE280839B
:10E650000894E11CF11C011D111D0894811C911CE2
:10E6600090E18916910409F0C2CF80E190E0A0E02A
:10E67000B0E0A80EB91ECA1EDB1E198AC2010F9493
:10E68000FAF10F94DCF16A94662009F072CF629679
:10E690000FB6F894DEBF0FBECDBFCF91DF911F91B3
:10E6A0000F91FF90EF90DF90CF90BF90AF909F9031
:10E6B0008F907F906F905F904F903F902F90089534
:10E6C0002F923F924F925F926F927F928F929F9282
:10E6D000AF92BF92CF92DF92EF92FF920F931F9370
:10E6E000DF93CF93CDB7DEB7CD53D1400FB6F894BB
:10E6F000DEBF0FBECDBF01E20EBF0FEF0DBF94B75F
:10E70000F894A89514BE80916000886180936000A1
:10E7100010926000789493FF05C0E0910002F091A0
:10E7200001021995279A2F9A8091C00082608093E8
:10E73000C00080E18093C40088E18093C1000000A4
:10E74000EE24FF24870144E0A42EB12CCC24DD2448
:10E7500024C0C5010197F1F70894E11CF11C011DCB
:10E76000111D21E2E2162EE4F20620E0020720E06D
:10E77000120718F031E0C32ED12CC801B70127ECE5
:10E780003BE140E050E00F9441FE611571058105C9
:10E79000910519F485B1805885B98091C00087FD35
:10E7A00003C0C114D104A9F2A6014F5F5F4FC25E3E
:10E7B000DE4F59834883CE51D140C25EDE4F8881FF
:10E7C0009981CE51D140019711F00D9410FEC05D9A
:10E7D000DE4F19821882C053D14060E0C15DDE4F28
:10E7E0001882CF52D14088249924C35DDE4F19820C
:10E7F0001882CD52D140C05EDE4F188219821A8233
:10E800001B82C052D140CE5CDE4F188219821A8220
:10E810001B82C253D140EE24FF2487010BBFF701B6
:10E8200007911691C45CDE4F19830883CC53D14005
:10E830000D940BFEC25EDE4F28813981CE51D1404E
:10E840002130310509F52091C600C25EDE4F1982E4
:10E850001882CE51D14022C02F5F3F4F4F4F5F4FA4
:10E86000213082E138078AE7480780E0580780F0C6
:10E87000C45CDE4FE881F981CC53D140EF5FFF4F9C
:10E8800019F0EE27FF27099420E030E040E050E047
:10E890008091C00087FFE0CF2091C600C35DDE4FAE
:10E8A00048815981CD52D1404F5F5F4FC35DDE4FEC
:10E8B00059834883CD52D140213209F063C64A3092
:10E8C000510508F05FC60894811C911C53E0851621
:10E8D000910409F059C600E010E018C081E280936D
:10E8E000C6008091C00086FFFCCF8091C00080648C
:10E8F0008093C0002F5F3F4F2931310579F70F9486
:10E90000DCF10F5F1F4F0530110519F020E030E0FA
:10E91000E5CF10920A0210920B0210920C02109294
:10E920000D02109206021092070210920802109235
:10E930000902109202021092030210920402109235
:10E9400005028FEE90EE60E00F94F5F180E191EE1C
:10E9500060E00F94C2F18091C00087FFFCCF9091DE
:10E96000C600903608F09F759032B8F09093C600BC
:10E970008091C00086FFFCCF8091C00080648093AE
:10E98000C000A0E2A093C6008091C00086FFFCCF2B
:10E990008091C00080648093C000983409F4D7C18E
:10E9A0009934B8F4923409F459C1933458F490333B
:10E9B00019F1903308F4E3C59F33A1F1903409F0C5
:10E9C000DEC5BDC0953409F470C1963409F0D7C5D1
:10E9D00098C1923509F42BC2933538F49C3409F46C
:10E9E000F5C1913509F0CBC518C2963509F445C279
:10E9F000993509F0C4C567C483E792EE62E00F94CD
:10EA0000F5F110920602109207021092080210927D
:10EA1000090210920A0210920B0210920C0210923C
:10EA20000D0213C18FE792EE62E00F94F5F18FEEC5
:10EA300090EE60E00F94F5F181E291EE60E00F94CA
:10EA4000C2F187EB91EE60E00F94F5F180E391EE77
:10EA500060E00F94C2F184EE90EE60E00F94F5F167
:10EA60008FE391EE60E00F94C2F186E090E061E008
:10EA700070E00F9434F20F94DCF18DE591EE60E0DC
:10EA80000F94C2F189EC91EE60E00F94F5F18EE401
:10EA900091EE60E00F94C2F183EC91EE60E00F9490
:10EAA000F5F18CE691EE60E00F94C2F18EE10F94E7
:10EAB0000DF288E90F940DF281E00F940DF20F949E
:10EAC000DCF18BE791EE60E00F94C2F119E0E0E039
:10EAD000F0E010935700E4918E2F0F940DF20F94F5
:10EAE000DCF18AE891EE60E00F94C2F1E3E0F0E03F
:10EAF00010935700E4918E2F0F940DF20F94DCF1D8
:10EB000089E991EE60E00F94C2F1E2E0F0E0109349
:10EB10005700E4918E2F0F940DF20F94DCF188EAE8
:10EB200091EE60E00F94C2F1E1E0F0E01093570045
:10EB30001491812F0F940DF20F94DCF107CF8BE825
:10EB400092EE62E00F94F5F18BE492EE60E00F94A8
:10EB5000F5F10F94DCF100E010E019C0C8016F2D51
:10EB60000F947FFEFF2031F489E492EE60E00F9471
:10EB7000C2F10BC0F092C6008091C00086FFFCCFAE
:10EB80008091C00080648093C0000F5F1F4FC80158
:10EB900081519F41A0E0B0E0ABBFFC01F790BAE229
:10EBA000FB1621F0E2E000301E07C1F60F94DCF105
:10EBB0000F94DCF187E592EE60E00F94F5F10F948D
:10EBC000DCF1CC24DD2400E010E01EC0C8010F946D
:10EBD00077FEF82E882331F489E492EE60E00F94FA
:10EBE000C2F10BC08093C6008091C00086FFFCCFAD
:10EBF0008091C00080648093C000FE1419F00894D6
:10EC0000C11CD11C0F5F1F4FC80181519F41A0E063
:10EC1000B0E0ABBFFC01E790FAE2EF1621F022E092
:10EC20000030120799F60F94DCF10F94DCF182E6C4
:10EC300092EE60E00F94C2F1C60161E070E00F94C3
:10EC400034F20F94DCF10F94DCF110920202109276
:10EC50000302109204021092050278CE89E992EE26
:10EC600062E00F94F5F1279A2F9A16C02F9880E052
:10EC700090E0E0EDF7E03197F1F7019684369105E9
:10EC8000C1F72F9A80E090E0E0EDF7E03197F1F7DF
:10EC9000019684369105C1F78091C00087FFE6CFC9
:10ECA0008091C00087FFFCCF64C485EA92EE62E0E9
:10ECB0000F94F5F140910202509103026091040219
:10ECC0007091050281E020E10F9491F2809102029F
:10ECD00090910302A0910402B091050280509F4FD1
:10ECE000AF4FBF4F8093020290930302A0930402A0
:10ECF000B093050280509041A040B04008F426CE69
:10ED0000A4CF83EB92EE62E00F94F5F140910602FE
:10ED100050910702609108027091090280E020E1A1
:10ED20000F9491F28091060290910702A09108023F
:10ED3000B091090280509F4FAF4FBF4F80930602A2
:10ED400090930702A0930802B0930902FFCD80ECD4
:10ED500092EE62E00F94F5F183E792EE60E00F949B
:10ED6000F5F18FE792EE60E00F94F5F18BE892EE0B
:10ED700060E00F94F5F189E992EE60E00F94F5F10F
:10ED800085EA92EE60E00F94F5F183EB92EE60E09D
:10ED90000F94F5F180EC92EE60E00F94F5F187ECC2
:10EDA00092EE60E00F94F5F188ED92EE60E00F9442
:10EDB000F5F18FED92EE60E00F94F5F18AEE92EEB0
:10EDC00060E00F94F5F183E093EEBDCD87EC92EE19
:10EDD00062E00F94F5F181E40F947BF282E40F94EA
:10EDE0007BF283E40F947BF284E40F947BF285E45E
:10EDF0000F947BF286E40F947BF287E40F947BF20E
:10EE000088E40F947BF28AE40F947BF28BE40F94F6
:10EE10007BF28CE40F947BF299CD88ED92EE62E068
:10EE20000F94F5F1772473948824992409C48FED05
:10EE300092EE62E00F94F5F140910A0250910B02BC
:10EE400060910C0270910D0282E020E10F9491F22A
:10EE500080910A0290910B02A0910C02B0910D02D8
:10EE600080509F4FAF4FBF4F80930A0290930B0289
:10EE7000A0930C02B0930D0269CD8AEE92EE62E08F
:10EE80000F94F5F184EE90EE60E00F94F5F18FECC5
:10EE900091EE60E00F94F5F1662477244301CC5D98
:10EEA000DE4F19821882C452D140D401C301B695F5
:10EEB000A79597958795CA5DDE4F88839983AA8326
:10EEC000BB83C652D140CC5DDE4FA881B981C4520C
:10EED000D1401196CC5DDE4FB983A883C452D14096
:10EEE000CD0162E070E00F9434F2B0E2B093C6005E
:10EEF0008091C00086FFFCCF8091C0008064809329
:10EF0000C000EDE2E093C6008091C00086FFFCCF18
:10EF10008091C00080648093C000F0E2F093C6004E
:10EF20008091C00086FFFCCF8091C00080648093F8
:10EF3000C000CA5DDE4FE880F9800A811B81C6529D
:10EF4000D140BB27A12F902F8F2D0F940DF2CA5DBA
:10EF5000DE4F8881C652D1400F940DF2B0E2FB2EF5
:10EF6000F092C6008091C00086FFFCCF8091C00067
:10EF700080648093C0000DE30093C6008091C000C0
:10EF800086FFFCCF8091C00080648093C00010E2B7
:10EF90001093C6008091C00086FFFCCF8091C00016
:10EFA00080648093C0008BBEF3012791C65DDE4F65
:10EFB0002883CA52D140A22EBB24CC24DD2408943D
:10EFC000611C711C811C911C8BBEF3018791282E42
:10EFD0003324442455240894611C711C811C911C09
:10EFE0008BBEF3013791C55DDE4F3883CB52D140E4
:10EFF0000894611C711C811C911C8BBEF30147910C
:10F00000C45DDE4F4883CC52D140ADEFEA2EAFEF66
:10F01000FA2EAFEF0A2FAFEF1A2F6E0C7F1C801E57
:10F02000911E142D032DF22CEE24EA0CFB1C0C1D5A
:10F030001D1D0F940DF220E22093C6008091C000A8
:10F0400086FFFCCF8091C00080648093C000C65DC5
:10F05000DE4F8881CA52D1400F940DF230E23093D6
:10F06000C6008091C00086FFFCCF8091C000806404
:10F070008093C000C45DDE4F8881CC52D1400F9494
:10F080000DF240E24093C6008091C00086FFFCCFA5
:10F090008091C00080648093C000C55DDE4F888190
:10F0A000CB52D1400F940DF250E25093C6008091A4
:10F0B000C00086FFFCCF8091C00080648093C000B8
:10F0C0008FEFE8168FEFF80680E0080780E018075A
:10F0D00031F484E092EE60E00F94C2F1DFC0D80119
:10F0E000C7018070907CA070B0708050904CA040A0
:10F0F000B040D1F52FEF3FE340E050E0E222F322B1
:10F1000004231523CA5DDE4FA880B980CA80DB8046
:10F11000C652D140AE0CBF1CC01ED11EAA0CBB1CD7
:10F12000CC1CDD1C8EE092EE60E00F94C2F1BB2798
:10F13000A12F902F8F2D0F940DF28E2D0F940DF285
:10F1400030E23093C6008091C00086FFFCCF8091F2
:10F15000C00080648093C0004EE34093C60080915D
:10F16000C00086FFFCCF87C08EE09EEFA0E0B0E03D
:10F17000E822F9220A231B239CE0E91694E9F90608
:10F1800090E0090790E0190709F088C0C45DDE4FE0
:10F19000A881CC52D140EA2EFF2400E010E0102FCD
:10F1A0000F2DFE2CEE24C55DDE4FB881CB52D14031
:10F1B000EB0EF11C011D111DD601C501817090706F
:10F1C000A070B070DC0199278827E80EF91E0A1F8D
:10F1D0001B1F20EF30E040E050E0A222B322C42207
:10F1E000D52241E1AA0CBB1CCC1CDD1C4A95D1F7F1
:10F1F000EA0CFB1C0C1D1D1D81E090E0A0E0B0E0BE
:10F20000282239224A225B2235E1220C331C441C7D
:10F21000551C3A95D1F7E20CF31C041D151D57013E
:10F220006801AA0CBB1CCC1CDD1C85E192EE60E0E1
:10F230000F94C2F1C801AA27BB270F940DF2BB2778
:10F24000A12F902F8F2D0F940DF28E2D0F940DF274
:10F2500090E29093C6008091C00086FFFCCF809121
:10F26000C00080648093C000AEE3A093C60080918C
:10F27000C00086FFFCCF8091C00080648093C000F6
:10F28000C601AA27BB270F940DF2BB27AD2D9C2DDD
:10F290008B2D0F940DF28A2D0F940DF20F94DCF14B
:10F2A000CC5DDE4FE881F981C452D140F99709F471
:10F2B0004DCBF4E0EF2EF12C012D112D6E0C7F1CA7
:10F2C000801E911EF2CD83E093EE62E00F94F5F183
:10F2D0008AE192EE60E00F94C2F18091C00087FF56
:10F2E000FCCF1091C6001F751093C6008091C0001E
:10F2F00086FFFCCF8091C00080648093C0000F9493
:10F30000DCF1812F81548A3108F036C1163409F4BA
:10F3100095C0173490F4133409F44EC0143430F40B
:10F320001134F1F0123409F01DC130C0143409F465
:10F3300059C0153409F016C16BC01A3409F4C4C0A1
:10F340001B3438F4173409F48FC0183409F00AC19B
:10F35000A1C01B3409F4D2C01C3409F003C1E8C0B9
:10F360008FEF81B90DC082B1809582B980E090E0C5
:10F37000E0EDF7E03197F1F70196883C9105C1F790
:10F380008091C00087FFEFCF12B8EFC08FEF84B934
:10F390000DC085B1809585B980E090E0E0EDF7E0A3
:10F3A0003197F1F70196883C9105C1F78091C00033
:10F3B00087FFEFCF15B8D9C08FEF87B90DC088B1DF
:10F3C000809588B980E090E0E0EDF7E03197F1F7C3
:10F3D0000196883C9105C1F78091C00087FFEFCF6F
:10F3E00018B8C3C08FEF8AB90DC08BB180958BB9A7
:10F3F00080E090E0E0EDF7E03197F1F70196883C8E
:10F400009105C1F78091C00087FFEFCF1BB8ADC059
:10F410008FEF8DB90DC08EB180958EB980E090E0F0
:10F42000E0EDF7E03197F1F70196883C9105C1F7DF
:10F430008091C00087FFEFCF1EB897C08FEF80BBD1
:10F440000DC081B3809581BB80E090E0E0EDF7E0F6
:10F450003197F1F70196883C9105C1F78091C00082
:10F4600087FFEFCF11BA81C08FEF83BB0DC084B38C
:10F47000809584BB80E090E0E0EDF7E03197F1F714
:10F480000196883C9105C1F78091C00087FFEFCFBE
:10F4900014BA6BC08FEF809301010FC080910201FD
:10F4A00080958093020180E090E0E0EDF7E03197F5
:10F4B000F1F70196883C9105C1F78091C00087FF64
:10F4C000EDCF1092020151C08FEF809304010FC065
:10F4D0008091050180958093050180E090E0E0ED4A
:10F4E000F7E03197F1F70196883C9105C1F78091DB
:10F4F000C00087FFEDCF1092050137C08FEF8093DA
:10F5000007010FC08091080180958093080180E079
:10F5100090E0E0EDF7E03197F1F70196883C910536
:10F52000C1F78091C00087FFEDCF109208011DC088
:10F530008FEF80930A010FC080910B01809580931B
:10F540000B0180E090E0E0EDF7E03197F1F70196F4
:10F55000883C9105C1F78091C00087FFEDCF1092E4
:10F560000B0103C085E292EEEEC98091C00087FFD7
:10F57000FCCF8091C600EAC988E392EEE4C98CE131
:10F5800091EEE1C988249924933011F1943028F444
:10F59000913089F09230B8F408C0953061F195301F
:10F5A000F0F0963009F048C043C02B3109F042C951
:10F5B00091E06BE13FC96227C15DDE4F2883CF52E6
:10F5C000D14092E037C9B22FA0E0622793E032C960
:10F5D000822F90E0A82BB92B622794E02BC92E3004
:10F5E00009F039C3622795E0C05DDE4F19821882A9
:10F5F000C053D1401FC9E1E0F0E0EC0FFD1FC05D3A
:10F60000DE4F08811981C053D140E00FF11F2083E4
:10F610000F5F1F4FC05DDE4F19830883C053D14079
:10F6200062270A171B0709F005C9D80196E002C92D
:10F63000261709F010C303C0973009F0FBC87724E0
:10F640009981933109F412C19431C8F4963009F4C8
:10F65000D8C0973050F4923009F406C1933009F4C1
:10F660006DC0913009F059C253C0913109F477C08F
:10F67000923108F0BBC0903109F04FC2F5C098310B
:10F6800009F487C0993150F4953109F4EFC09531F0
:10F6900008F4C6C1963109F040C2C2C19A3109F4DA
:10F6A0006CC09A3108F491C09B3109F45BC09D3164
:10F6B00009F033C29D81903359F48F81882311F46E
:10F6C0009EE11CC0813011F091E018C098E916C08D
:10F6D000892F807591F0903539F4E0E0F0E089E011
:10F6E0008093570094910AC0983539F4E3E0F0E034
:10F6F00089E080935700949101C090E01A821B82A8
:10F700008D818C831D829E831F8227E030E009C299
:10F710001A8288E08B8381E48C8386E58D8382E581
:10F720008E8389E48F8383E5888780E589878FE5E9
:10F730008A8782E38B872BE030E0F3C18A818139AD
:10F7400041F0823941F0803911F48FE005C080E04A
:10F7500003C082E001C08AE01A828B8344C0772410
:10F76000739482C08D81882311F48EE12CC0813086
:10F7700011F081E028C088E926C01A82E1E0F0E0BB
:10F7800089E08093570084918B831C8224E030E0D1
:10F79000C8C18B81803589F48C81883039F4E2E0EE
:10F7A000F0E089E08093570084910DC0E0E0F0E044
:10F7B00089E080935700849106C0E3E0F0E089E09F
:10F7C0008093570084911A82DFCF8D81836C99E0FA
:10F7D000E1E0F0E0082E90935700E89507B600FCB2
:10F7E000FDCF1A821B8223E030E09BC180EC8A832C
:10F7F000CE5CDE4F188219821A821B82C253D1401E
:10F800008EC18A8190E0A0E0B0E0582F44273327D2
:10F8100022278B8190E0A0E0B0E0DC0199278827C7
:10F82000282B392B4A2B5B2B8D8190E0A0E0B0E098
:10F83000282B392B4A2B5B2B8C8190E0A0E0B0E089
:10F84000BA2FA92F982F8827282B392B4A2B5B2BCF
:10F85000220F331F441F551FC05EDE4F288339839C
:10F860004A835B83C052D1401A8259C13A81C95C34
:10F87000DE4F3883C753D140CA5CDE4F1882C6536F
:10F88000D1408B81C82EDD24CA5CDE4F488159816E
:10F89000C653D140C42AD52A933109F082C0CE5C28
:10F8A000DE4F88819981AA81BB81C253D1408050AB
:10F8B000904CA340B04030F583E0CE5CDE4FE88052
:10F8C000F9800A811B81C253D140F70100935B008C
:10F8D00080935700E89507B600FCFDCFCE5CDE4F65
:10F8E000088119812A813B81C253D14000501F4FAA
:10F8F0002F4F3F4FCE5CDE4F088319832A833B8313
:10F90000C253D140C05EDE4F488159816A817B81FC
:10F91000C052D140DE011B9631E08C9111962C91A2
:10F9200011971296C75CDE4F2883C953D140C85C3B
:10F93000DE4F1882C853D14090E0C85CDE4FE881AA
:10F94000F981C853D1408E2B9F2B0C01FA01609393
:10F950005B0030935700E89511244E5F5F4F6F4F67
:10F960007F4F0EEFE02E0FEFF02ECE0CDF1CC114F8
:10F97000D10499F685E0C05EDE4F088119812A81A5
:10F980003B81C052D140F80120935B008093570027
:10F99000E89507B600FCFDCF81E180935700E8951C
:10F9A00035C0C05EDE4F88819981AA81BB81C0527B
:10F9B000D140B695A795979587957C018601ABE0D8
:10F9C000AA2EB12CAC0EBD1E0BC0D5016D915D01F0
:10F9D000C7010F947FFE0894E11CF11C01501040F8
:10F9E0000115110591F7A60160E070E0440F551F65
:10F9F000661F771FC05EDE4FE880F9800A811B8199
:10FA0000C052D1404E0D5F1D601F711F1A82C05E33
:10FA1000DE4F488359836A837B83C052D1407FC0C5
:10FA2000FA80C55CDE4FF882CB53D140C65CDE4F16
:10FA30001882CA53D1408B81C82EDD24C65CDE4FAC
:10FA400008811981CA53D140C02AD12A1A828981DA
:10FA5000BE016D5F7F4F843121F59601C05EDE4FA0
:10FA6000E880F9800A811B81C052D1400BBFF701A9
:10FA700087919691DB018C9311969C936E5F7F4FDB
:10FA8000D801C7010296A11DB11DC05EDE4F88835B
:10FA90009983AA83BB83C052D14022503040F1F6F3
:10FAA00036C0C05EDE4F288139814A815B81C052F9
:10FAB000D1400894C108D108760100E010E0089414
:10FAC000C11CD11C0894E11CF11C011D111DE20E8A
:10FAD000F31E041F151F21BDBB27A52F942F832FB5
:10FAE00082BD2F5F3F4F4F4F5F4FF89A80B5DB01CC
:10FAF0008D93BD012E153F054007510761F7C05E8C
:10FB0000DE4F288339834A835B83C052D1409601FC
:10FB10002D5F3F4FFB01108204C080EC8A8322E0FE
:10FB200030E08BE18093C6008091C00086FFFCCF5F
:10FB30008091C00080648093C000C15DDE4FF88179
:10FB4000CF52D140F093C6008091C00086FFFCCF19
:10FB50008091C00080648093C000432F3093C60022
:10FB60008091C00086FFFCCF8091C00080648093AC
:10FB7000C000922F2093C6008091C00086FFFCCF6A
:10FB80008091C00080648093C0008EE08093C600A6
:10FB90008091C00086FFFCCF8091C000806480937C
:10FBA000C00065E1C15DDE4FE880CF52D1406E25D7
:10FBB00069276427FE01319610C090819093C6009A
:10FBC0008091C00086FFFCCF31968091C000806498
:10FBD0008093C0006927215030402115310569F715
:10FBE0006093C6008091C00086FFFCCF8091C0006A
:10FBF00080648093C00085B1805885B9772081F4F6
:10FC0000C15DDE4F0881CF52D1400F5FC15DDE4F35
:10FC10000883CF52D14090E0A0E0B0E00D941AF4F8
:10FC200027982F9880E090E020ED37E0F901319798
:10FC3000F1F7019684369105C9F700008091C00064
:10FC40008D7F8093C00081E180935700E895EE2777
:10FC5000FF270994FFCF90E00D941AF497FB092E2B
:10FC600007260AD077FD04D02ED006D000201AF443
:10FC7000709561957F4F0895F6F7909581959F4F08
:10FC80000895A1E21A2EAA1BBB1BFD010DC0AA1FDD
:10FC9000BB1FEE1FFF1FA217B307E407F50720F0F5
:10FCA000A21BB30BE40BF50B661F771F881F991F70
:10FCB0001A9469F760957095809590959B01AC01B9
:10FCC000BD01CF010895AA1BBB1B51E107C0AA1FAC
:10FCD000BB1FA617B70710F0A61BB70B881F991FED
:10FCE0005A95A9F780959095BC01CD010895F99991
:10FCF000FECF92BD81BDF89A992780B50895262F31
:10FD0000F999FECF1FBA92BD81BD20BD0FB6F89400
:0EFD1000FA9AF99A0FBE01960895F894FFCF63
:00000001FF
