:100000000C9452010C9483010C9483010C94830191
:100010000C9483010C9483010C9483010C94830150
:100020000C9483010C9483010C9483010C94830140
:100030000C9483010C94EE070C9483010C948301BF
:100040000C9483010C9483010C9483010C94830120
:100050000C9483010C9483010C9483010C94A407E9
:100060000C9483010C9483010C9483010C94830100
:100070000C9483010C9483010C9483010C948301F0
:100080000C9483010C9483010C9483010C948301E0
:100090000C9483010C9483010C9483010C948301D0
:1000A0000C9483010C9483010C9483010C948301C0
:1000B0000C9483010C9483010C9483010C948301B0
:1000C0000C9483010C9483010C9483010C948301A0
:1000D0000C9483010C9483010C9483010C94830190
:1000E0000C9483010C9425070C9428030C946B0C3E
:1000F0000C94E8010C94DA010C94BE010C94930763
:100100000C943A070C94E4010C941C070C942E07F1
:100110000C9455030C947B070C94F2060C94B101DB
:100120000C9487070C94F8060C949F070C94100706
:100130000C946F070C94E3010C9456030C94630722
:100140000C9452070C94C8010C94B8010C94DE0670
:100150000C94C2010C94CC010C946E050C94040711
:100160000C94A9010C94DE010C9446070C94A30195
:100170000C94D0010C94AD010C94B5010C94D601F3
:100180000200002100240027002A002D0030003347
:100190000001010000040107010A010000220025FE
:1001A0000028002B002E0031003400020100000561
:1001B0000108010B01000020002300260029002C6B
:1001C000002F0032000001000003010601090105B3
:1001D000050505070508080808020202020A0A08C0
:1001E00008040404040101010101010101030303E6
:1001F0000303030303040707070C0C0C0C0C0C0C83
:100200000C0202020206060606060606060B0B0B89
:100210000B0B0B0B0B0102102020080810204010C4
:1002200020408002010201080402010102040810BA
:1002300020408080402010080402018004020180D8
:100240004020100804020108040201010204081001
:10025000204080010204081020408000000A0B02A8
:10026000090C0D0E08070304010000000000000047
:10027000000000000000000000000000000000007E
:10028000000000000000001211100000000000003B
:10029000000000000000000000000000000000005E
:1002A00000006B0C11241FBECFEFD1E2DEBFCDBF2B
:1002B00000E00CBF12E0A0E0B2E0E4E9F1E200E00F
:1002C0000BBF02C007900D92A63EB107D9F723E0FD
:1002D000A6EEB2E001C01D92A333B207E1F711E030
:1002E000C2E5D1E000E006C021970109802FFE01A0
:1002F0000E94A30EC135D10780E00807A9F70E942C
:100300004E080C94C8100C9400008150823108F003
:100310005AC0E82FF0E08827EF56FE4F8F4F0C941D
:10032000A30EB101B501A301A901AD01E301B8011B
:10033000BE01C201C801CC01D001D601DA01E3013E
:10034000DE01E401E801809180008F7780938000D6
:100350000895809180008F7DF9CF80918000877F04
:10036000F5CF84B58F7784BD089584B58F7DFBCF9D
:100370008091B0008F778093B00008958091B00095
:100380008F7DF9CF809190008F77809390000895B2
:10039000809190008F7DF9CF80919000877FF5CF7D
:1003A0008091A0008F778093A00008958091A00095
:1003B0008F7DF9CF8091A000877FF5CF80912001BC
:1003C0008F77809320010895809120018F7DF9CF50
:1003D00080912001877FF5CFCF93DF93282F30E0E6
:1003E000F901E55AFD4F8491F901EB5EFD4FD4917F
:1003F000F901E153FE4FC491CC23A1F081110E9479
:100400008501EC2FF0E0EE0FFF1FEB54FE4FA5919E
:10041000B491EC91ED2381E090E009F480E0DF916C
:10042000CF91089580E090E0FACF1F93CF93DF93B0
:10043000282F30E0F901E55AFD4F8491F901EB5E78
:10044000FD4FD491F901E153FE4FC491CC23A9F0A3
:10045000162F81110E948501EC2FF0E0EE0FFF1F97
:10046000E556FE4FA591B4918FB7F894EC91111118
:1004700008C0D095DE23DC938FBFDF91CF911F9111
:100480000895DE2BF8CFCF93DF9390E0FC01EB5E75
:10049000FD4F249181539E4FFC0184918823D1F01C
:1004A00090E0880F991FFC01EF57FE4FA591B49182
:1004B000FC01E556FE4FC591D491623071F49FB7AF
:1004C000F8943C91822F809583238C93E8812E2B86
:1004D00028839FBFDF91CF9108958FB7F894EC9157
:1004E0002E2B2C938FBFF6CF90917B00977F90930C
:1004F0007B008653806480937C0080917A008064C6
:1005000080937A0080917A0086FDFCCF80917800FC
:100510009091790008953FB7F894809112039091DB
:100520001303A0911403B091150326B5A89B05C031
:100530002F3F19F00196A11DB11D3FBFBA2FA92F62
:10054000982F8827BC01CD01620F711D811D911D5F
:1005500042E0660F771F881F991F4A95D1F70895CB
:100560008F929F92AF92BF92CF92DF92EF92FF92C3
:100570006B017C010E948B024B015C01C114D10410
:10058000E104F104B9F00E948B02681979098A0923
:100590009B09683E73408105910580F321E0C21AF2
:1005A000D108E108F10888EE880E83E0981EA11CAE
:1005B000B11CE4CFFF90EF90DF90CF90BF90AF9051
:1005C0009F908F9008959091000289130DC0E0E8EC
:1005D000F1E0E4919FEF90930002E230E1F038F413
:1005E000EE2381F0E13089F060E00C941502E430F4
:1005F00049F110F1E530C1F7909173009D7F909320
:100600007300F2CF10926E00EFCF90916F009D7F3C
:1006100090936F00E9CF909170009D7F9093700050
:1006200091E09093B0009091B100987F9460909386
:10063000B1001092B300D8CF909171009D7F90933C
:100640007100D2CF909172009D7F90937200CCCFB9
:10065000AF92BF92CF92DF92EF92FF920F931F93D0
:10066000CF93DF936C017B018B01040F151FEB010E
:100670005E01AE18BF08C017D10759F06991D601C5
:10068000ED91FC910190F081E02DC6011995892B27
:1006900079F7C501DF91CF911F910F91FF90EF90F6
:1006A000DF90CF90BF90AF900895089590E080E0E4
:1006B000089590910102992319F061E00C941502BC
:1006C000089560E00C941502FC0101900020E9F708
:1006D0003197AF01481B590BBC0187E193E00C94A3
:1006E00028038F929F92AF92BF920F931F93CF9345
:1006F000DF93CDB7DEB7A1970FB6F894DEBF0FBE7C
:10070000CDBF19A2423008F44AE08E010F5D1F4FA1
:10071000842E912CB12CA12CA50194010E94CC0D0A
:10072000E62FB901CA01EA30F4F4E05DD801EE9396
:100730008D01232B242B252B79F790E080E0109757
:1007400019F0CD010E946403A1960FB6F894DEBFA4
:100750000FBECDBFDF91CF911F910F91BF90AF9092
:100760009F908F900895E95CE1CF0C94640361E061
:100770008AE00E94430260E08AE00E94150261E084
:1007800089E00E94430260E089E00E94150261E076
:1007900088E00E94430260E088E00C941502CF9349
:1007A000DF93EC0160E08E810E94150261E08E8192
:1007B0000E94150260E08E810E9415028BE891E094
:1007C0000197F1F7DF91CF910895CF92DF92EF92E9
:1007D000FF920F931F93CF93DF936C017C0187E00F
:1007E000E80EF11CD0E0C0E0062F10E0B8010C2E9E
:1007F00002C0759567950A94E2F76170F7018191DF
:100800007F010E9415022196C430D10579F7C601F7
:10081000DF91CF911F910F91FF90EF90DF90CF90DC
:100820000C94CF03CF92DF92EF92FF920F931F931E
:10083000CF93DF93EC01F62E642F8C810E9415027A
:100840008D818F3F19F060E00E9415020F2D10E09E
:100850008F8584FF25C06E0187E0C80ED11CF12C66
:10086000E12CB8010E2C02C0759567950A94E2F749
:100870006170F60181916F010E941502FFEFEF1A7E
:10088000FF0A88E0E816F10461F7CE01DF91CF910D
:100890001F910F91FF90EF90DF90CF900C94CF03BA
:1008A000B80184E0759567958A95E1F7CE010E94BD
:1008B000E5036F2DCE01DF91CF911F910F91FF9036
:1008C000EF90DF90CF900C94E50340E0682F87E134
:1008D00093E00C94120481E00E9465048BE39FE195
:1008E0000197F1F70895CF93DF93823029F4909127
:1008F000260398609093260380932A0310922B037B
:1009000080E480932C0380E180932D0380E5809325
:100910002E0361E080911B030E94430280911C031F
:100920008F3F19F061E00E94430261E080911D0356
:100930000E944302C7E1D3E09E01275133408091DA
:10094000260384FD0BC084E090E021962817390728
:1009500044F461E08E810E944302EECF88E090E093
:10096000F4CF8BE39DE00197F1F760E080911B03EA
:100970000E94150260E080911D030E941502809183
:100980001C038F3F19F060E00E941502809126033E
:1009900084FD34C063E087E193E00E94E503CBE48B
:1009A000D6E4CE010197F1F763E087E193E00E947E
:1009B000E5032197F1F763E087E193E00E94E50307
:1009C00083E592E00197F1F762E087E193E00E940E
:1009D000E5038091260380620E94650484E0809391
:1009E00027038CE00E9465040E946B0482E08093E0
:1009F000280386E0DF91CF910C94650480620E9409
:100A000065048BE496E40197F1F7809126038062F8
:100A10000E94650483E592E00197F1F78091260337
:100A200080620E946504D5CF643008F063E0909145
:100A30002A03691710F06FEF690FE62FF0E0E95E07
:100A4000FC4F9489890F80680C946504CF93DF93E1
:100A5000D82F87E30E947402C1E08F3F910511F007
:100A60000CF0C0E020910B032C1306C0D1112EC056
:100A70008C2FDF91CF9108958F3F910509F074F489
:100A800086E00E9459030E946B0484E192E00E9478
:100A9000B50361E080E00E941405EACF86E00E9481
:100AA00061030E946B04D111E3CF80E292E00E94C7
:100AB000B50361E080E00E94140568EE73E080E019
:100AC00090E00E94B0020E946B04D2CF8F3F91054C
:100AD000B9F2B4F286E00E946103F5CF41E00E94D2
:100AE000120481E090E00895CF92DF92EF92FF929E
:100AF0006C01990FEE08FF08F7FE16C041E06DE2A9
:100B000087E193E00E94120466277727CB016C19D6
:100B10007D098E099F094AE00E9471030196FF90AA
:100B2000EF90DF90CF9008954AE0C701B601FF90A3
:100B3000EF90DF90CF900C9471038F929F92AF92C1
:100B4000BF92CF92DF92EF92FF92CF9388E30E9401
:100B50007402BC01990F880B990B0E94900C2AE03B
:100B600038E240EA5BE30E94EF0C20E030E048EC22
:100B700052E40E94EF0C6B017C01C1E020E030E008
:100B800048EC51E40E94990E18160CF0C0E020E0E9
:100B900030E048EC51E4C701B6010E94990E1816E6
:100BA0000CF0AAC083E10E9459030E946B048FE2FB
:100BB00092E00E94B503A7019601C701B6010E9409
:100BC0009E0E882309F18AE392E00E94640386E482
:100BD00092E00E94B50361E080E00E94140589E480
:100BE00092E00E94B5036CE271E080E090E00E9428
:100BF000B0028C2FCF91FF90EF90DF90CF90BF90FD
:100C0000AF909F908F90089546015701E894B7F8F0
:100C10002FEF3FEF4FE75FE7C501B4010E949E0E43
:100C200081110DC02FEF3FEF4FE75FE7C501B40122
:100C30000E94890C18161CF48EE392E0C6CF2FEFA9
:100C40003FEF4FE75FE4C701B6010E94990E181607
:100C50001CF482E492E0B9CF2FEF3FEF4FE75FEC57
:100C6000C701B6010E94890C87FDF3CF20E030E078
:100C7000A901C701B6010E94890C87FF0AC041E0A3
:100C80006DE287E193E00E941204F7FAF094F7F81E
:100C9000F0942DEC3CEC4CE45DE3C701B6010E94FE
:100CA000FE0D4B015C010E946A0E6B017C010E94EB
:100CB0008E0C9B01AC01C501B4010E94FD0D4B01DE
:100CC0005C014AE0C701B6010E94710341E06EE297
:100CD00087E193E00E94120420E030E040E251E41A
:100CE000C501B4010E94EF0C0E946A0E90E080E002
:100CF0004AE00E9471036BCF83E10E9461038091FF
:100D00001603882309F475CF0E946B0472CFCF932A
:100D1000DF93D82F85E10E94EC01C1E0009709F034
:100D2000C0E020910C032C1302C0DD2361F0892B5D
:100D300071F40E94B7030E946B0468E270E080E0E7
:100D400090E00E94B0028C2FDF91CF91089582E154
:100D50000E94610361E08AE00E94430261E08AE050
:100D60000E94150261E089E00E94430260E089E090
:100D70000E94150261E088E00E944302E3E6F2E08F
:100D8000E491E150E23108F0DAC0F0E08827E45362
:100D9000F94F8F4F0C94A30EDE06F206F8060407F7
:100DA00010079F071C0725072E073A07460752071B
:100DB00063076F079F077B078707930784B58068E2
:100DC00084BD84E687BD0E946B0484E592E00E94A6
:100DD000B50361E080E00E94140585E692E00E9480
:100DE000B503B1CF84B5806284BD84E688BDEBCF06
:100DF0008091800080688093800084E690E09093EA
:100E0000890080938800DFCF80918000806280938A
:100E1000800084E690E090938B0080938A00D3CF8B
:100E20008091800088608093800084E690E09093B9
:100E30008D0080938C00C7CF8091B0008068809334
:100E4000B00084E68093B300BECF8091B000806292
:100E50008093B00084E68093B400B5CF8091900079
:100E600080688093900084E690E09093990080934E
:100E70009800A9CF8091900080628093900084E6D2
:100E800090E090939B0080939A009DCF809190007A
:100E900088608093900084E690E090939D0080931A
:100EA0009C0091CF8091A00080688093A0008091E9
:100EB000A0008F7B8093A00084E690E09093A9002F
:100EC0008093A80080CF8091A00080628093A000D2
:100ED00084E690E09093AB008093AA0074CF809159
:100EE000A00088608093A00084E690E09093AD001D
:100EF0008093AC0068CF80912001806880932001AE
:100F000084E690E090932901809328015CCF809142
:100F1000200180628093200184E690E090932B0171
:100F200080932A0150CF8091200188608093200116
:100F300084E690E090932D0180932C0144CF60E0F3
:100F400088E00E9415023FCF1F920F920FB60F92BA
:100F500011242F933F938F939F93AF93BF938091CF
:100F60000E0390910F03A0911003B09111033091E3
:100F70000D0323E0230F2D3758F50196A11DB11D58
:100F800020930D0380930E0390930F03A0931003FF
:100F9000B09311038091120390911303A091140355
:100FA000B09115030196A11DB11D8093120390937A
:100FB0001303A0931403B0931503BF91AF919F91B6
:100FC0008F913F912F910F900FBE0F901F9018950A
:100FD00026E8230F0296A11DB11DD2CF1F920F92BA
:100FE0000FB60F9211240BB60F922F933F934F938E
:100FF0005F936F937F938F939F93AF93BF93EF9381
:10100000FF938091FA029091FB02A091FC02B091B3
:10101000FD02892B8A2B8B2BE1F19091E902E09163
:10102000EA02F091EB028081892780838091FA02A5
:101030009091FB02A091FC02B091FD0218161906D6
:101040001A061B069CF48091FA029091FB02A09173
:10105000FC02B091FD020197A109B1098093FA0247
:101060009093FB02A093FC02B093FD02FF91EF91DD
:10107000BF91AF919F918F917F916F915F914F91B0
:101080003F912F910F900BBE0F900FBE0F901F90AE
:101090001895809100020E94E302E8CF789484B50D
:1010A000826084BD84B5816084BD85B5826085BD64
:1010B00085B5816085BD80916E00816080936E00F2
:1010C00010928100809181008260809381008091E4
:1010D0008100816080938100809180008160809395
:1010E00080008091B10084608093B1008091B00055
:1010F00081608093B0008091910082608093910024
:101100008091910081608093910080919000816036
:10111000809390008091A10082608093A1008091D3
:10112000A10081608093A1008091A00081608093E4
:10113000A000809121018260809321018091210192
:101140008160809321018091200181608093200142
:1011500080917A00846080937A0080917A00826026
:1011600080937A0080917A00816080937A008091E8
:101170007A00806880937A001092C10062E085E175
:101180000E94430262E08EE00E94430262E081E13D
:101190000E94430261E082E10E94430261E083E138
:1011A0000E94430261E08BE00E94430261E086E01E
:1011B0000E94430261E08DE00E94430282E00E94AF
:1011C000730461E08AE00E94430261E089E00E94CA
:1011D000430261E088E00E94430281E00E948706AA
:1011E00080930C0381E00E94260580930B030E94EC
:1011F0009D058093160368E170E090E080E00E9416
:10120000D70FEC01D12CC12C009741F0188264E774
:1012100072E00E94C110A7E1CA2ED12C10E1F12C7E
:10122000E12C56018FE0A80EB11CAE14BF04BCF037
:101230000E946B0460E0812F0E941405A601BE018C
:1012400087E193E00E94280364E170E080E090E091
:101250000E94B002EFEFEE1AFE0A1150E6CF20977F
:1012600019F0CE010E944E0F0E946B04C5E0D0E041
:1012700080E992E00E94B50362E370E080E090E0D4
:101280000E94B0022197A1F70E946B04C3E0D0E056
:101290008CE892E00E94B50369E170E080E090E0A4
:1012A0000E94B0020E946B0469E170E080E090E06F
:1012B0000E94B002219761F76FE3A62E6FE1B62E70
:1012C00073EE872E71E0972E09E212E0E0E02E2EF9
:1012D000E0E03E2E44244A94542C320180E00E94E7
:1012E000870680930C0380E00E94260580930B0301
:1012F0000E949D058093160381E10E94EC01892BD9
:1013000009F03DC02FB7F89480910E0390910F0320
:10131000A0911003B09111032FBF4091060350918B
:1013200007036091080370910903841B950BA60BBA
:10133000B70B893C9105A105B10508F12FB7F894C9
:1013400080910E0390910F03A0911003B0911103AF
:101350002FBF8093060390930703A0930803B093D5
:1013600009038DE00E94EC01892B09F486C00E94DC
:101370006B048DE00E94610384E10E94E3028DE032
:101380000E94EC0121E0892B09F020E020930A0360
:1013900086E30E94740224E630E0DC010E94AB0E7A
:1013A0002FEF33E040E050E00E94AD0D6901C9012C
:1013B000255031092530310508F000C261E08BE08D
:1013C0000E9415020E946B048FEA92E00E94B5030E
:1013D00061E080E00E94140582EC92E00E94B50377
:1013E000C6010E9474056CE271E080E090E00E940A
:1013F000B0028EE00E94EC01892BC1F52FB7F89462
:1014000080910E0390910F03A0911003B0911103EE
:101410002FBF40910603509107036091080370911C
:101420000903841B950BA60BB70B893C9105A105FD
:10143000B105E0F02FB7F89480910E0390910F035F
:10144000A0911003B09111032FBF809306039093D6
:101450000703A0930803B093090382E10E94EC0103
:10146000892B09F425C282E10E9461032114310411
:1014700009F434CF0E94000031CF0E946B0482E94E
:1014800092E00E94B50361E080E00E94140581EAC9
:1014900092E00E94B5038DE00E94590382E10E9410
:1014A000610380910002843131F5E0E8F1E0C491FC
:1014B000C7FD65CF61E084E10E944302CC2309F4BB
:1014C000EDC0C23009F0FEC08091B100887F83601A
:1014D0008093B10089EF8093B3004092FA0250925A
:1014E000FB026092FC027092FD02809170008260AB
:1014F0008093700044CF8F3F09F041CF84E1809307
:101500000002E0E8F1E0C4918C2FCF3F09F437CF1F
:10151000C23009F467C060F4CC2379F1C13009F41A
:1015200043C087FD2CCF61E084E10E944302C9CF14
:10153000C43009F496C008F476C0C53091F7109213
:101540002001109221018091210188608093210166
:1015500080912101816080932101F4018491E82F21
:10156000F0E0EE0FFF1FE556FE4F85919491F801D4
:1015700084918093E602C5E09DCF14BC15BC84B570
:10158000826084BD85B5816085BDF4018491E82FBA
:10159000F0E0EE0FFF1FE556FE4F85919491F801A4
:1015A00084918093ED0286CF10928000109281008A
:1015B00080918100886080938100809181008160AA
:1015C00080938100F4018491E82FF0E0EE0FFF1F7B
:1015D000E556FE4F85919491F80184918093EC0239
:1015E000C1E068CF1092B0001092B1008091B000BD
:1015F00082608093B0008091B10081608093B100DF
:10160000F4018491E82FF0E0EE0FFF1FE556FE4F46
:10161000859194919093EB028093EA02F801849172
:101620008093E90247CF1092900010929100809130
:1016300091008860809391008091910081608093F7
:101640009100F4018491E82FF0E0EE0FFF1FE556C2
:10165000FE4F85919491F80184918093E802C3E054
:1016600029CF1092A0001092A1008091A100886063
:101670008093A1008091A10081608093A100F4017A
:101680008491E82FF0E0EE0FFF1FE556FE4F8591A5
:101690009491F80184918093E7020CCF85B5887FFF
:1016A000836085BD8CE787BD40920203509203039F
:1016B000609204037092050380916E0082608093B3
:1016C0006E005DCEC130C1F480918100887F816061
:1016D00080938100B0928900A09288004092FE021F
:1016E0005092FF02609200037092010380916F009C
:1016F000826080936F0043CEC330C1F4809191002B
:10170000887F816080939100B0929900A0929800A8
:101710004092F6025092F7026092F8027092F9023B
:101720008091710082608093710029CEC430C1F431
:101730008091A100887F81608093A100B092A90070
:10174000A092A8004092F2025092F3026092F4023A
:101750007092F502809172008260809372000FCEC9
:10176000C530C1F480912101887F8160809321017F
:10177000B0922901A09228014092EE025092EF020D
:101780006092F0027092F102809173008260809307
:101790007300F5CDC23081F034F4CC2359F0C13060
:1017A00009F0EDCD97CFC43049F20CF4ADCFC53080
:1017B000F9F2E5CD8FE377CF8FE38DCE96012150FF
:1017C000310924303105B0F50E946B048FEA92E0B4
:1017D0000E94B50361E080E00E9414058EEB92E068
:1017E0000E94B503C6010E9474058BE00E9461034C
:1017F00061E370E080E090E00E94B00261E08BE085
:101800000E94150261E370E080E090E00E94B00267
:101810008BE00E94610361E370E080E090E00E9451
:10182000B00261E08BE00E94150261E370E080E0AD
:1018300090E0DDCD181619062CF1109201028BE014
:101840000E94610386E00E9461038DE00E946103B3
:1018500083E10E94610384E10E94E30282E10E942D
:1018600061030E94B7030E946B048CEC92E00E941B
:10187000B50361E080E00E94140588ED92E00E94CB
:10188000B503B7CD0B970CF4B4CD80910102811153
:1018900009C00E946B0481E0809301028BE00E94EA
:1018A0006103A7CD8BE00E94EC01892B91F7F3CF68
:1018B00080910C03882309F4D9CD80910A038823F1
:1018C00009F4D4CD80910102882309F4CFCD82E1BF
:1018D0000E945903CBCDE7E1F3E0138212828CE042
:1018E00092E0918380838CE084838FEF858387E00F
:1018F000868385E0878384E0808783E0818782E038
:1019000082871386148615861686178681E00C94C6
:1019100073040E94CB0C08F481E00895E89409C098
:1019200097FB3EF490958095709561957F4F8F4F12
:101930009F4F9923A9F0F92F96E9BB279395F69528
:10194000879577956795B795F111F8CFFAF4BB0FA6
:1019500011F460FF1BC06F5F7F4F8F4F9F4F16C00A
:10196000882311F096E911C0772321F09EE8872F94
:10197000762F05C0662371F096E8862F70E060E050
:101980002AF09A95660F771F881FDAF7880F9695C9
:10199000879597F90895990F0008550FAA0BE0E86D
:1019A000FEEF16161706E807F907C0F01216130621
:1019B000E407F50798F0621B730B840B950B39F461
:1019C0000A2661F0232B242B252B21F408950A26C7
:1019D00009F4A140A6958FEF811D811D08950E94F5
:1019E000020D0C94730D0E94650D38F00E946C0D71
:1019F00020F0952311F00C945C0D0C94620D1124D1
:101A00000C94A70D0E94840D70F3959FC1F3950F60
:101A100050E0551F629FF001729FBB27F00DB11D72
:101A2000639FAA27F00DB11DAA1F649F6627B00D02
:101A3000A11D661F829F2227B00DA11D621F739FEB
:101A4000B00DA11D621F839FA00D611D221F749FF9
:101A50003327A00D611D231F849F600D211D822F40
:101A6000762F6A2F11249F5750409AF0F1F0882367
:101A70004AF0EE0FFF1FBB1F661F771F881F915094
:101A80005040A9F79E3F510580F00C945C0D0C94DA
:101A9000A70D5F3FE4F3983ED4F38695779567955D
:101AA000B795F795E7959F5FC1F7FE2B880F911DBE
:101AB0009695879597F9089597F99F6780E870E064
:101AC00060E008959FEF80EC089500240A941616B4
:101AD000170618060906089500240A94121613061C
:101AE000140605060895092E0394000C11F48823AA
:101AF00052F0BB0F40F4BF2B11F460FF04C06F5FC6
:101B00007F4F8F4F9F4F089557FD9058440F551F9B
:101B100059F05F3F71F04795880F97FB991F61F06F
:101B20009F3F79F087950895121613061406551FE6
:101B3000F2CF4695F1DF08C0161617061806991F52
:101B4000F1CF86957105610508940895E894BB2747
:101B500066277727CB0197F90895052E97FB1EF48A
:101B600000940E94C40D57FD07D00E94CC0D07FCC5
:101B700003D04EF40C94C40D5095409530952195AA
:101B80003F4F4F4F5F4F08959095809570956195A9
:101B90007F4F8F4F9F4F0895A1E21A2EAA1BBB1BA8
:101BA000FD010DC0AA1FBB1FEE1FFF1FA217B30729
:101BB000E407F50720F0A21BB30BE40BF50B661F3F
:101BC000771F881F991F1A9469F760957095809503
:101BD00090959B01AC01BD01CF010895A29FB0017A
:101BE000B39FC001A39F700D811D1124911DB29F51
:101BF000700D811D1124911D08955058BB27AA27EF
:101C00000E94150E0C94730D0E94650D38F00E9411
:101C10006C0D20F039F49F3F19F426F40C94620DFA
:101C20000EF4E095E7FB0C945C0DE92F0E94840D07
:101C300058F3BA17620773078407950720F079F401
:101C4000A6F50C94A60D0EF4E0950B2EBA2FA02D40
:101C50000B01B90190010C01CA01A0011124FF2759
:101C6000591B99F0593F50F4503E68F11A16F04054
:101C7000A22F232F342F4427585FF3CF4695379553
:101C80002795A795F0405395C9F77EF41F16BA0B18
:101C9000620B730B840BBAF09150A1F0FF0FBB1FC6
:101CA000661F771F881FC2F70EC0BA0F621F731F0F
:101CB000841F48F4879577956795B795F7959E3F6C
:101CC00008F0B0CF9395880F08F09927EE0F9795FD
:101CD000879508950E948C0D88F09F5798F0B92F32
:101CE0009927B751B0F0E1F0660F771F881F991F51
:101CF0001AF0BA95C9F714C0B13091F00E94A60D40
:101D0000B1E008950C94A60D672F782F8827B85F4F
:101D100039F0B93FCCF3869577956795B395D9F7A8
:101D20003EF490958095709561957F4F8F4F9F4FB2
:101D300008950E94CB0C08F48FEF08950E94CB0CFD
:101D4000880B990B0895EE0FFF1F881F8BBF07901C
:101D5000F691E02D19940E94EE0DB7FF0895821BB5
:101D6000930B08950F931F93CF93DF9382309105C8
:101D700010F482E090E0E0913103F091320330E022
:101D800020E0B0E0A0E0309799F42115310509F486
:101D90004AC0281B390B24303105D8F58A819B8134
:101DA0006115710589F1FB0193838283FE0111C0E6
:101DB000408151810281138148175907E0F048178B
:101DC000590799F4109761F012960C931297139695
:101DD0001C933296CF01DF91CF911F910F910895FF
:101DE0000093310310933203F4CF2115310551F0E4
:101DF0004217530738F0A901DB019A01BD01DF0149
:101E0000F801C1CFEF01F9CF9093320380933103F2
:101E1000CDCFFE01E20FF31F819391932250310940
:101E200039832883D7CF20912F0330913003232B80
:101E300041F4209104023091050230933003209345
:101E40002F0320910202309103022115310541F444
:101E50002DB73EB74091060250910702241B350B67
:101E6000E0912F03F0913003E217F307A0F42E1B4B
:101E70003F0B2817390778F0AC014E5F5F4F2417EE
:101E8000350748F04E0F5F1F5093300340932F03E8
:101E9000819391939FCFF0E0E0E09CCFCF93DF93CD
:101EA0000097E9F0FC01329713821282A09131036E
:101EB000B0913203ED0130E020E01097A1F42081D1
:101EC0003181820F931F20912F0330913003281707
:101ED000390709F061C0F0933003E0932F03DF91DD
:101EE000CF910895EA01CE17DF07E8F54A815B81BB
:101EF0009E0141155105B1F7E901FB83EA83499140
:101F00005991C40FD51FEC17FD0761F480819181B1
:101F10000296840F951FE9019983888382819381BA
:101F20009B838A83F0E0E0E012968D919C91139759
:101F30000097B9F52D913C911197CD010296820F32
:101F4000931F20912F03309130032817390739F65A
:101F5000309751F51092320310923103B093300351
:101F6000A0932F03BCCFD383C28340815181840FC0
:101F7000951FC817D90761F44E5F5F4F888199811B
:101F8000480F591F518340838A819B8193838283A9
:101F90002115310509F0B0CFF0933203E0933103FE
:101FA0009ECFFD01DC01C0CF13821282D7CF4F92AA
:101FB0005F926F927F928F929F92AF92BF92CF92D9
:101FC000DF92EF92FF920F931F93CF93DF938C01D9
:101FD000009799F4CB01DF91CF911F910F91FF9062
:101FE000EF90DF90CF90BF90AF909F908F907F90B9
:101FF0006F905F904F900C94B20EFC01E60FF71FAC
:102000009C0122503109E217F30708F4AEC0D90150
:10201000CD91DC911197C617D70720F1C530D105B6
:1020200078F0CE0104978617970750F0C61BD70BA0
:102030002297C193D1936D937C93CF010E944E0F51
:10204000C801DF91CF911F910F91FF90EF90DF902A
:10205000CF90BF90AF909F908F907F906F905F9048
:102060004F9008955B01AC1ABD0A4C018C0E9D1E69
:10207000A0913103B0913203512C412CF12CE12C71
:10208000109731F580912F039091300388159905B1
:1020900009F05CC04616570608F058C0809102024D
:1020A00090910302009741F48DB79EB740910602CC
:1020B00050910702841B950BE817F90708F055C0EB
:1020C000F0933003E0932F03F90171836083B8CF5D
:1020D0008D919C91119712966C90129713967C900B
:1020E0001397A815B90559F56C0142E0C40ED11C2F
:1020F000CA14DB0420F1AC014A195B09DA0112961B
:10210000159780F06282738251834083D9016D9369
:102110007C93E114F10471F0D7011396FC93EE93D4
:1021200012978ECF22968C0F9D1FF9019183808389
:10213000F301EFCFF0933203E093310381CF4816E0
:10214000590608F42C017D01D3019ACFCB010E94DE
:10215000B20E7C01009749F0AE01B8010E94B810A0
:10216000C8010E944E0F87016BCF10E000E068CFDE
:10217000FB01DC0102C001900D9241505040D8F7A4
:102180000895FB01DC0101900D920020E1F7089514
:04219000F894FFCFF1
:10219400FF01000033038000000000006E052803E7
:1021A400560355034661726C6172204163696B008A
:1021B4004661726C6172204B6170616E6469005398
:1021C4006963616B6C696B3A20006E616E00696EC5
:1021D40066006F7666002043004B6C696D61204198
:1021E40063696B0055796172693A204B61706920AB
:1021F4004163696B004D6F746F722043616C697346
:102204006D617A002D3E2020484F532047454C44B1
:10221400494E495A203A2920203C2D002E2E2E2E9C
:102224002E00456D6E69796574204B656D65726924
:102234000054616B696C6920446567696C210059BD
:10224400616B697420536576697965736900436FBE
:102254006B20447573756B202D20250059616B69C3
:1022640074204269747469004D6F746F72204B61FD
:0622740070616E64690058
:00000001FF
