:100000000C9451010C9482010C9482010C94820195
:100010000C9482010C9482010C9482010C94820154
:100020000C9482010C9482010C9482010C94820144
:100030000C9482010C9482010C9482010C94820134
:100040000C9482010C9482010C9482010C94820124
:100050000C9482010C9482010C9482010C945E0732
:100060000C9482010C9482010C9482010C94820104
:100070000C9482010C9482010C9482010C948201F4
:100080000C9482010C9482010C9482010C948201E4
:100090000C9482010C9482010C9482010C948201D4
:1000A0000C9482010C9482010C9482010C948201C4
:1000B0000C9482010C9482010C9482010C948201B4
:1000C0000C9482010C9482010C9482010C948201A4
:1000D0000C9482010C9482010C9482010C94820194
:1000E0000C9482010C94E2010C94BE060C94D6068A
:1000F0000C94E7010C940C070C94E8060C9441074F
:100100000C94CA060C94BD010C94B4010C944D07D8
:100110000C94E3010C94D9010C94C7010C94AC012C
:100120000C94AC060C9428050C94270A0C94DF065A
:100130000C94E2020C94DD010C9435070C94A80198
:100140000C9498060C94B2060C940F030C941D07A3
:100150000C94CF010C9429070C94B0010C94D50198
:100160000C94CB010C9410030C94C1010C94000767
:100170000C94F4060C94A2010C94B7010C9459074A
:1001800000002100240027002A002D003000330049
:1001900001010000040107010A01000022002500FE
:1001A00028002B002E003100340002010000050160
:1001B00008010B01000020002300260029002C006C
:1001C0002F003200000100000301060109010505AE
:1001D0000505070508080808020202020A0A0808BD
:1001E00004040404010101010101010103030303EB
:1001F00003030303040707070C0C0C0C0C0C0C0C7A
:100200000202020206060606060606060B0B0B0B8A
:100210000B0B0B0B010210202008081020401020AF
:1002200040800201020108040201010204081020BA
:1002300040808040201008040201800402018040B8
:100240002010080402010804020101020408102021
:100250004080010204081020408000000A0B0209BF
:100260000C0D0E0807030401000000000000000050
:10027000000000000000000000000000000000007E
:10028000000000000000121110000000000000003B
:10029000000000000000000000000000000000005E
:1002A000270A11241FBECFEFD1E2DEBFCDBF00E091
:1002B0000CBF12E0A0E0B2E0ECE0FDE100E00BBF1B
:1002C00002C007900D92A63EB107D9F723E0A6EE33
:1002D000B2E001C01D92A331B207E1F711E0C1E520
:1002E000D1E000E006C021970109802FFE010E94A5
:1002F0005F0CC035D10780E00807A9F70E94A80766
:100300000C94840E0C9400008150823108F05AC085
:10031000E82FF0E08827E057FE4F8F4F0C945F0CDA
:10032000B001B401A201A801AC01E201B701BD0115
:10033000C101C701CB01CF01D501D901E201DD0126
:10034000E301E701809180008F778093800008951A
:10035000809180008F7DF9CF80918000877FF5CFDD
:1003600084B58F7784BD089584B58F7DFBCF809150
:10037000B0008F778093B00008958091B0008F7D9A
:10038000F9CF809190008F778093900008958091AD
:1003900090008F7DF9CF80919000877FF5CF80917D
:1003A000A0008F778093A00008958091A0008F7D9A
:1003B000F9CF8091A000877FF5CF809120018F77C2
:1003C000809320010895809120018F7DF9CF809145
:1003D0002001877FF5CFCF93DF93282F30E0F901FD
:1003E000E65AFD4F8491F901EC5EFD4FD491F9017D
:1003F000E253FE4FC491CC23A1F081110E948401ED
:10040000EC2FF0E0EE0FFF1FEC54FE4FA591B491DE
:10041000EC91ED2381E090E009F480E0DF91CF9151
:10042000089580E090E0FACF1F93CF93DF93282FB9
:1004300030E0F901E65AFD4F8491F901EC5EFD4F81
:10044000D491F901E253FE4FC491CC23A9F0162FA9
:1004500081110E948401EC2FF0E0EE0FFF1FE656A1
:10046000FE4FA591B4918FB7F894EC91111108C08B
:10047000D095DE23DC938FBFDF91CF911F9108953C
:10048000DE2BF8CFCF93DF9390E0FC01EC5EFD4FC5
:10049000249182539E4FFC0184918823D1F090E0F7
:1004A000880F991FFC01E058FE4FA591B491FC0103
:1004B000E656FE4FC591D491623071F49FB7F8941F
:1004C0003C91822F809583238C93E8812E2B288367
:1004D0009FBFDF91CF9108958FB7F894EC912E2BA9
:1004E0002C938FBFF6CF90917B00977F90937B00EA
:1004F0008653806480937C0080917A00806480932E
:100500007A0080917A0086FDFCCF809178009091EE
:10051000790008953FB7F8948091F2029091F30228
:10052000A091F402B091F50226B5A89B05C02F3F1B
:1005300019F00196A11DB11D3FBFBA2FA92F982F09
:100540008827BC01CD01620F711D811D911D42E004
:10055000660F771F881F991F4A95D1F708958F92CC
:100560009F92AF92BF92CF92DF92EF92FF926B0178
:100570007C010E948A024B015C01C114D104E10498
:10058000F104B9F00E948A02681979098A099B0965
:10059000683E73408105910580F321E0C21AD108BD
:1005A000E108F10888EE880E83E0981EA11CB11CBA
:1005B000E4CFFF90EF90DF90CF90BF90AF909F90EF
:1005C0008F900895AF92BF92CF92DF92EF92FF92F9
:1005D0000F931F93CF93DF936C017B018B01040F6B
:1005E000151FEB015E01AE18BF08C017D10759F007
:1005F0006991D601ED91FC910190F081E02DC60149
:100600001995892B79F7C501DF91CF911F910F9132
:10061000FF90EF90DF90CF90BF90AF900895089536
:1006200090E080E0089590910002992319F061E034
:100630000C941402089560E00C941402FC010190E3
:100640000020E9F73197AF01481B590BBC0187EF38
:1006500092E00C94E2028F929F92AF92BF920F931E
:100660001F93CF93DF93CDB7DEB7A1970FB6F89462
:10067000DEBF0FBECDBF19A2423008F44AE08E01A2
:100680000F5D1F4F842E912CB12CA12CA50194013C
:100690000E94880BE62FB901CA01EA30F4F4E05D4C
:1006A000D801EE938D01232B242B252B79F790E095
:1006B00080E0109719F0CD010E941E03A1960FB69D
:1006C000F894DEBF0FBECDBFDF91CF911F910F9188
:1006D000BF90AF909F908F900895E95CE1CF0C940C
:1006E0001E0361E08AE00E94420260E08AE00E940C
:1006F000140261E089E00E94420260E089E00E9409
:10070000140261E088E00E94420260E088E00C94FC
:100710001402CF93DF93EC0160E08E810E941402FB
:1007200061E08E810E94140260E08E810E941402BA
:100730008BE891E00197F1F7DF91CF910895CF9287
:10074000DF92EF92FF920F931F93CF93DF936C0191
:100750007C0187E0E80EF11CD0E0C0E0062F10E03D
:10076000B8010C2E02C0759567950A94E2F7617086
:10077000F70181917F010E9414022196C430D105B6
:1007800079F7C601DF91CF911F910F91FF90EF9004
:10079000DF90CF900C948903CF92DF92EF92FF927B
:1007A0000F931F93CF93DF93EC01F62E642F8C8170
:1007B0000E9414028D818F3F19F060E00E941402A4
:1007C0000F2D10E08F8584FF25C06E0187E0C80ED5
:1007D000D11CF12CE12CB8010E2C02C07595679547
:1007E0000A94E2F76170F60181916F010E94140290
:1007F000FFEFEF1AFF0A88E0E816F10461F7CE0177
:10080000DF91CF911F910F91FF90EF90DF90CF90EC
:100810000C948903B80184E0759567958A95E1F792
:10082000CE010E949F036F2DCE01DF91CF911F91CA
:100830000F91FF90EF90DF90CF900C949F0340E0DA
:10084000682F87EF92E00C94CC0381E00E941F0494
:100850008BE39FE10197F1F70895CF93DF93823007
:1008600029F49091060398609093060380930A03FD
:1008700010920B0380E480930C0380E180930D03BE
:1008800080E580930E0361E08091FB020E944202AA
:100890008091FC028F3F19F061E00E94420261E00A
:1008A0008091FD020E944202C7EFD2E09E01275FC5
:1008B00032408091060384FD0BC084E090E02196D5
:1008C0002817390744F461E08E810E944202EECF7E
:1008D00088E090E0F4CF8BE39DE00197F1F760E0D2
:1008E0008091FB020E94140260E08091FD020E9450
:1008F00014028091FC028F3F19F060E00E94140204
:100900008091060384FD34C063E087EF92E00E948B
:100910009F03CBE4D6E4CE010197F1F763E087EFC4
:1009200092E00E949F032197F1F763E087EF92E046
:100930000E949F0383E592E00197F1F762E087EF61
:1009400092E00E949F038091060380620E941F0430
:1009500084E0809307038CE00E941F040E9425041A
:1009600082E08093080386E0DF91CF910C941F040E
:1009700080620E941F048BE496E40197F1F7809156
:10098000060380620E941F0483E592E00197F1F75D
:100990008091060380620E941F04D5CF643008F066
:1009A00063E090910A03691710F06FEF690FE62F6B
:1009B000F0E0E950FD4F9489890F80680C941F0482
:1009C000CF93DF93D82F87E30E947302C1E08F3F5C
:1009D000910511F00CF0C0E02091EB022C1306C041
:1009E000D1112EC08C2FDF91CF9108958F3F9105AB
:1009F00009F074F486E00E9413030E94250483E149
:100A000092E00E946F0361E080E00E94CE04EACF92
:100A100086E00E941B030E942504D111E3CF8FE1E1
:100A200092E00E946F0361E080E00E94CE0468EED5
:100A300073E080E090E00E94AF020E942504D2CFD4
:100A40008F3F9105B9F2B4F286E00E941B03F5CF07
:100A500041E00E94CC0381E090E008958F929F9244
:100A6000AF92BF92CF92DF92EF92FF92CF9388E343
:100A70000E947302BC01990F880B990B0E944C0ACB
:100A80002AE038E240EA5BE30E94AB0A20E030E073
:100A900048EC52E40E94AB0A6B017C01C1E020E00B
:100AA00030E048EC51E40E94550C18160CF0C0E000
:100AB00020E030E048EC51E4C701B6010E94550C3B
:100AC00018160CF0AAC083E10E9413030E942504AB
:100AD0008EE292E00E946F03A7019601C701B60162
:100AE0000E945A0C882309F189E392E00E941E03B8
:100AF00085E492E00E946F0361E080E00E94CE04F2
:100B000088E492E00E946F036CE271E080E090E084
:100B10000E94AF028C2FCF91FF90EF90DF90CF908B
:100B2000BF90AF909F908F90089546015701E89431
:100B3000B7F82FEF3FEF4FE75FE7C501B4010E9421
:100B40005A0C81110DC02FEF3FEF4FE75FE7C50152
:100B5000B4010E94450A18161CF48DE392E0C6CF3A
:100B60002FEF3FEF4FE75FE4C701B6010E94550C3E
:100B700018161CF481E492E0B9CF2FEF3FEF4FE756
:100B80005FECC701B6010E94450A87FDF3CF20E064
:100B900030E0A901C701B6010E94450A87FF0AC0DB
:100BA00041E06DE287EF92E00E94CC03F7FAF09407
:100BB000F7F8F0942DEC3CEC4CE45DE3C701B60192
:100BC0000E94BA0B4B015C010E94260C6B017C0158
:100BD0000E944A0A9B01AC01C501B4010E94B90BF5
:100BE0004B015C014AE0C701B6010E942B0341E0C2
:100BF0006EE287EF92E00E94CC0320E030E040E21A
:100C000051E4C501B4010E94AB0A0E94260C90E099
:100C100080E04AE00E942B036BCF83E10E941B031C
:100C20008091F602882309F475CF0E94250472CFC3
:100C3000CF92DF92EF92FF926C01990FEE08FF08BE
:100C4000F7FE16C041E06DE287EF92E00E94CC0310
:100C500066277727CB016C197D098E099F094AE029
:100C60000E942B030196FF90EF90DF90CF900895A4
:100C70004AE0C701B601FF90EF90DF90CF900C944F
:100C80002B03CF93DF93D82F85E10E94EB01C1E0C6
:100C9000009709F0C0E02091EC022C1302C0DD2384
:100CA00061F0892B71F40E9471030E94250468E2AF
:100CB00070E080E090E00E94AF028C2FDF91CF9136
:100CC000089582E10E941B0361E08AE00E944202D3
:100CD00061E08AE00E94140261E089E00E94420221
:100CE00060E089E00E94140261E088E00E94420214
:100CF000E2E6F2E0E491E150E23108F0DAC0F0E03F
:100D00008827EA57F94F8F4F0C945F0C9806AC0672
:100D1000B206BE06CA065907D606DF06E806F4067E
:100D200000070C071D0729075907350741074D071D
:100D300084B5806884BD84E687BD0E94250483E570
:100D400092E00E946F0361E080E00E94CE0484E69E
:100D500092E00E946F03B1CF84B5806284BD84E6C7
:100D600088BDEBCF8091800080688093800084E60E
:100D700090E09093890080938800DFCF809180007D
:100D800080628093800084E690E090938B00809353
:100D90008A00D3CF8091800088608093800084E6B1
:100DA00090E090938D0080938C00C7CF8091B0002D
:100DB00080688093B00084E68093B300BECF8091BA
:100DC000B00080628093B00084E68093B400B5CF19
:100DD0008091900080688093900084E690E09093EA
:100DE000990080939800A9CF8091900080628093B1
:100DF000900084E690E090939B0080939A009DCFB2
:100E00008091900088608093900084E690E09093B9
:100E10009D0080939C0091CF8091A000806880937A
:100E2000A0008091A0008F7B8093A00084E690E0DA
:100E30009093A9008093A80080CF8091A000806249
:100E40008093A00084E690E09093AB008093AA008A
:100E500074CF8091A00088608093A00084E690E029
:100E60009093AD008093AC0068CF809120018068A2
:100E70008093200184E690E09093290180932801DB
:100E80005CCF8091200180628093200184E690E015
:100E900090932B0180932A0150CF8091200188608C
:100EA0008093200184E690E090932D0180932C01A3
:100EB00044CF60E088E00E9414023FCF1F920F925F
:100EC0000FB60F9211242F933F938F939F93AF935D
:100ED000BF938091EE029091EF02A091F002B09149
:100EE000F1023091ED0223E0230F2D3758F50196E2
:100EF000A11DB11D2093ED028093EE029093EF02AD
:100F0000A093F002B093F1028091F2029091F3026B
:100F1000A091F402B091F5020196A11DB11D80933C
:100F2000F2029093F302A093F402B093F502BF9102
:100F3000AF919F918F913F912F910F900FBE0F9086
:100F40001F90189526E8230F0296A11DB11DD2CF40
:100F5000789484B5826084BD84B5816084BD85B594
:100F6000826085BD85B5816085BD80916E008160A0
:100F700080936E0010928100809181008260809346
:100F80008100809181008160809381008091800048
:100F90008160809380008091B10084608093B10073
:100FA0008091B00081608093B00080919100826058
:100FB0008093910080919100816080939100809155
:100FC00090008160809390008091A1008260809366
:100FD000A1008091A10081608093A1008091A00078
:100FE00081608093A0008091210182608093210123
:100FF0008091210181608093210180912001816095
:101000008093200180917A00846080937A0080919F
:101010007A00826080937A0080917A008160809368
:101020007A0080917A00806880937A001092C100E3
:1010300062E085E10E94420262E08EE00E9442028C
:1010400062E081E10E94420261E082E10E9442028C
:1010500061E083E10E94420261E08BE00E94420273
:1010600061E086E00E94420261E08DE00E9442025F
:1010700061E084E10E94420282E00E942D0461E06E
:101080008AE00E94420261E089E00E94420261E03F
:1010900088E00E94420281E00E94410681E00E94B5
:1010A000E0040E942E0568E170E090E080E00E947C
:1010B000930DEC01D12CC12C009741F0188263E70D
:1010C00072E00E947D0E97E1C92ED12C10E1F12C27
:1010D000E12C56018FE0A80EB11CAE14BF04BCF089
:1010E0000E94250460E0812F0E94CE04A601BE016B
:1010F00087EF92E00E94E20264E170E080E090E01D
:101100000E94AF028FEFE81AF80A1150E6CF20973D
:1011100019F0CE010E940A0D0E942504C5E0D0E01E
:101120008FE892E00E946F0362E370E080E090E05D
:101130000E94AF022197A1F70E942504C3E0D0E0EE
:101140008BE892E00E946F0369E170E080E090E03C
:101150000E94AF020E94250469E170E080E090E007
:101160000E94AF02219761F788248A9483E0982E29
:10117000A12CB12CC0E0D0E080E00E944106809319
:10118000EC0280E00E94E0048093EB020E942E05B6
:101190008093F60281E10E94EB01892B09F03DC0AA
:1011A0002FB7F8948091EE029091EF02A091F00297
:1011B000B091F1022FBF4091E6025091E702609199
:1011C000E8027091E902841B950BA60BB70B893CD2
:1011D0009105A105B10508F12FB7F8948091EE02B1
:1011E0009091EF02A091F002B091F1022FBF809395
:1011F000E6029093E702A093E802B093E9028DE043
:101200000E94EB01892B09F483C00E9425048DE024
:101210000E941B0384E10E941B038DE00E94EB01EE
:1012200021E0892B09F020E02093EA0286E30E9466
:10123000730224E630E0DC010E94670CA5019401F2
:101240000E94690B6901C90125503109253031051A
:1012500008F076C061E08BE00E9414020E94250431
:101260008EEA92E00E946F0361E080E00E94CE046B
:1012700081EC92E00E946F03C6010E9418066CE2A6
:1012800071E080E090E00E94AF028EE00E94EB01EE
:10129000892BC1F52FB7F8948091EE029091EF025F
:1012A000A091F002B091F1022FBF4091E60250915F
:1012B000E7026091E8027091E902841B950BA60B8E
:1012C000B70B893C9105A105B105E0F02FB7F89463
:1012D0008091EE029091EF02A091F002B091F102A4
:1012E0002FBF8093E6029093E702A093E802B093A9
:1012F000E90282E10E94EB01892B09F495C082E1A9
:101300000E941B03209709F437CF0E94000034CFBE
:101310000E94250481E992E00E946F0361E080E071
:101320000E94CE0480EA92E00E946F038DE00E944A
:10133000130382E10E941B0384E10E9413036DCF1B
:101340009601215031092430310558F50E942504B9
:101350008EEA92E00E946F0361E080E00E94CE047A
:101360008DEB92E00E946F03C6010E94180605E013
:1013700010E060E08BE00E94140262E370E080E025
:1013800090E00E94AF0261E08BE00E94140262E3F1
:1013900070E080E090E00E94AF020150110949F72F
:1013A00074CF181619064CF160E08BE00E9414020D
:1013B0001092000286E00E941B038DE00E941B0336
:1013C00083E10E941B038BE00E941B0384E10E94C7
:1013D0001B030E94710382E10E941B030E942504EB
:1013E0008BEC92E00E946F0361E080E00E94CE04EB
:1013F00087ED92E00E946F0348CF0B970CF445CF26
:101400008091000281110AC00E94250481E080932E
:10141000000260E08BE00E94140237CF8BE00E9454
:10142000EB01892B89F7F2CF8091EC02882309F434
:1014300069CF8091EA02882309F464CF8091000289
:10144000882309F45FCF82E10E9413035BCFE7EFAB
:10145000F2E0138212828BE092E0918380838CE031
:1014600084838FEF858387E0868385E0878384E0AC
:10147000808783E0818782E08287138614861586C1
:101480001686178681E00C942D040E94870A08F4C2
:1014900081E00895E89409C097FB3EF4909580950B
:1014A000709561957F4F8F4F9F4F9923A9F0F92F2A
:1014B00096E9BB279395F695879577956795B795A8
:1014C000F111F8CFFAF4BB0F11F460FF1BC06F5F8E
:1014D0007F4F8F4F9F4F16C0882311F096E911C0A0
:1014E000772321F09EE8872F762F05C0662371F0C1
:1014F00096E8862F70E060E02AF09A95660F771FD5
:10150000881FDAF7880F9695879597F90895990FB0
:101510000008550FAA0BE0E8FEEF16161706E807BD
:10152000F907C0F012161306E407F50798F0621BDE
:10153000730B840B950B39F40A2661F0232B242BB3
:10154000252B21F408950A2609F4A140A6958FEFD2
:10155000811D811D08950E94BE0A0C942F0B0E94CC
:10156000210B38F00E94280B20F0952311F00C94E9
:10157000180B0C941E0B11240C94630B0E94400B4F
:1015800070F3959FC1F3950F50E0551F629FF001D6
:10159000729FBB27F00DB11D639FAA27F00DB11DEF
:1015A000AA1F649F6627B00DA11D661F829F222778
:1015B000B00DA11D621F739FB00DA11D621F839FFF
:1015C000A00D611D221F749F3327A00D611D231FD5
:1015D000849F600D211D822F762F6A2F11249F5723
:1015E00050409AF0F1F088234AF0EE0FFF1FBB1F26
:1015F000661F771F881F91505040A9F79E3F5105E5
:1016000080F00C94180B0C94630B5F3FE4F3983E4E
:10161000D4F3869577956795B795F795E7959F5F8E
:10162000C1F7FE2B880F911D9695879597F9089520
:1016300097F99F6780E870E060E008959FEF80EC85
:10164000089500240A941616170618060906089528
:1016500000240A9412161306140605060895092E8E
:101660000394000C11F4882352F0BB0F40F4BF2BFD
:1016700011F460FF04C06F5F7F4F8F4F9F4F08953D
:1016800057FD9058440F551F59F05F3F71F0479533
:10169000880F97FB991F61F09F3F79F08795089518
:1016A000121613061406551FF2CF4695F1DF08C037
:1016B000161617061806991FF1CF86957105610554
:1016C00008940895E894BB2766277727CB0197F9FC
:1016D0000895052E97FB1EF400940E94800B57FD81
:1016E00007D00E94880B07FC03D04EF40C94800BAB
:1016F00050954095309521953F4F4F4F5F4F08953E
:1017000090958095709561957F4F8F4F9F4F08956D
:10171000A1E21A2EAA1BBB1BFD010DC0AA1FBB1FF5
:10172000EE1FFF1FA217B307E407F50720F0A21B67
:10173000B30BE40BF50B661F771F881F991F1A94D4
:1017400069F760957095809590959B01AC01BD01FE
:10175000CF010895A29FB001B39FC001A39F700D58
:10176000811D1124911DB29F700D811D1124911DA9
:1017700008955058BB27AA270E94D10B0C942F0B19
:101780000E94210B38F00E94280B20F039F49F3F73
:1017900019F426F40C941E0B0EF4E095E7FB0C9460
:1017A000180BE92F0E94400B58F3BA176207730712
:1017B0008407950720F079F4A6F50C94620B0EF4DB
:1017C000E0950B2EBA2FA02D0B01B90190010C0151
:1017D000CA01A0011124FF27591B99F0593F50F469
:1017E000503E68F11A16F040A22F232F342F4427C1
:1017F000585FF3CF469537952795A795F0405395B9
:10180000C9F77EF41F16BA0B620B730B840BBAF088
:101810009150A1F0FF0FBB1F661F771F881FC2F7F3
:101820000EC0BA0F621F731F841F48F48795779507
:101830006795B795F7959E3F08F0B0CF9395880FC1
:1018400008F09927EE0F9795879508950E94480B09
:1018500088F09F5798F0B92F9927B751B0F0E1F071
:10186000660F771F881F991F1AF0BA95C9F714C021
:10187000B13091F00E94620BB1E008950C94620BBC
:10188000672F782F8827B85F39F0B93FCCF386955A
:1018900077956795B395D9F73EF4909580957095B7
:1018A00061957F4F8F4F9F4F08950E94870A08F4DC
:1018B0008FEF08950E94870A880B990B0895EE0F09
:1018C000FF1F881F8BBF0790F691E02D19940E948F
:1018D000AA0BB7FF0895821B930B08950F931F93D4
:1018E000CF93DF938230910510F482E090E0E09195
:1018F0001103F091120330E020E0B0E0A0E0309757
:1019000099F42115310509F44AC0281B390B2430FC
:101910003105D8F58A819B816115710589F1FB013B
:1019200093838283FE0111C0408151810281138122
:1019300048175907E0F04817590799F4109761F0D4
:1019400012960C93129713961C933296CF01DF9147
:10195000CF911F910F9108950093110310931203DB
:10196000F4CF2115310551F04217530738F0A90182
:10197000DB019A01BD01DF01F801C1CFEF01F9CF11
:101980009093120380931103CDCFFE01E20FF31F5A
:10199000819391932250310939832883D7CF2091A5
:1019A0000F0330911003232B41F420910302309157
:1019B00004023093100320930F0320910102309111
:1019C00002022115310541F42DB73EB740910502C1
:1019D00050910602241B350BE0910F03F091100388
:1019E000E217F307A0F42E1B3F0B2817390778F0F6
:1019F000AC014E5F5F4F2417350748F04E0F5F1F55
:101A00005093100340930F03819391939FCFF0E085
:101A1000E0E09CCFCF93DF930097E9F0FC01329791
:101A200013821282A0911103B0911203ED0130E0F4
:101A300020E01097A1F420813181820F931F209123
:101A40000F03309110032817390709F061C0F09394
:101A50001003E0930F03DF91CF910895EA01CE17B1
:101A6000DF07E8F54A815B819E0141155105B1F719
:101A7000E901FB83EA8349915991C40FD51FEC1703
:101A8000FD0761F4808191810296840F951FE90121
:101A900099838883828193819B838A83F0E0E0E04D
:101AA00012968D919C9113970097B9F52D913C91C9
:101AB0001197CD010296820F931F20910F03309151
:101AC00010032817390739F6309751F51092120391
:101AD00010921103B0931003A0930F03BCCFD383D4
:101AE000C28340815181840F951FC817D90761F4C3
:101AF0004E5F5F4F88819981480F591F5183408302
:101B00008A819B81938382832115310509F0B0CFAF
:101B1000F0931203E09311039ECFFD01DC01C0CFCF
:101B200013821282D7CF4F925F926F927F928F92E1
:101B30009F92AF92BF92CF92DF92EF92FF920F935C
:101B40001F93CF93DF938C01009799F4CB01DF9122
:101B5000CF911F910F91FF90EF90DF90CF90BF90AA
:101B6000AF909F908F907F906F905F904F900C946C
:101B70006E0CFC01E60FF71F9C0122503109E217A1
:101B8000F30708F4AEC0D901CD91DC911197C617C7
:101B9000D70720F1C530D10578F0CE01049786171C
:101BA000970750F0C61BD70B2297C193D1936D9323
:101BB0007C93CF010E940A0DC801DF91CF911F9144
:101BC0000F91FF90EF90DF90CF90BF90AF909F90DC
:101BD0008F907F906F905F904F9008955B01AC1A4B
:101BE000BD0A4C018C0E9D1EA0911103B0911203F1
:101BF000512C412CF12CE12C109731F580910F03E1
:101C0000909110038815990509F05CC04616570697
:101C100008F058C08091010290910202009741F4AF
:101C20008DB79EB74091050250910602841B950B1B
:101C3000E817F90708F055C0F0931003E0930F037D
:101C4000F90171836083B8CF8D919C9111971296A1
:101C50006C90129713967C901397A815B90559F5B7
:101C60006C0142E0C40ED11CCA14DB0420F1AC01AB
:101C70004A195B09DA011296159780F06282738225
:101C800051834083D9016D937C93E114F10471F089
:101C9000D7011396FC93EE9312978ECF22968C0F5A
:101CA0009D1FF90191838083F301EFCFF09312031D
:101CB000E093110381CF4816590608F42C017D01E9
:101CC000D3019ACFCB010E946E0C7C01009749F0A2
:101CD000AE01B8010E94740EC8010E940A0D87016E
:101CE0006BCF10E000E068CFFB01DC0102C0019087
:101CF0000D9241505040D8F70895FB01DC0101904E
:0C1D00000D920020E1F70895F894FFCF49
:101D0C0001000013038000000000002805E202100F
:101D1C00030F034661726C6172204163696B00466C
:101D2C0061726C6172204B6170616E646900536901
:101D3C0063616B6C696B3A20006E616E00696E6654
:101D4C00006F7666002043004B6C696D6120416327
:101D5C00696B0055796172693A204B617069204159
:101D6C0063696B004D6F746F722043616C69736DA6
:101D7C00617A002D3E2020484F532047454C444962
:101D8C004E495A203A2920203C2D002E2E2E2E2E44
:101D9C0000456D6E69796574204B656D65726900DF
:101DAC0054616B696C6920446567696C21005961E9
:101DBC006B697420536576697965736900436F6B41
:101DCC0020447573756B202D20250059616B697447
:101DDC00204269747469004D6F746F72204B61708E
:061DEC00616E6469000055
:00000001FF
