:100000000C9451010C9482010C9482010C94820195
:100010000C9482010C9482010C9482010C94820154
:100020000C9482010C9482010C9482010C94820144
:100030000C9482010C9482010C9482010C94820134
:100040000C9482010C9482010C9482010C94820124
:100050000C9482010C9482010C9482010C94500740
:100060000C9482010C9482010C9482010C94820104
:100070000C9482010C9482010C9482010C948201F4
:100080000C9482010C9482010C9482010C948201E4
:100090000C9482010C9482010C9482010C948201D4
:1000A0000C9482010C9482010C9482010C948201C4
:1000B0000C9482010C9482010C9482010C948201B4
:1000C0000C9482010C9482010C9482010C948201A4
:1000D0000C9482010C9482010C9482010C94820194
:1000E0000C9482010C94FE060C94AC010C94C8068E
:1000F0000C94A2010C94CB010C940F030C94CF012F
:100100000C94F2060C94E6060C94BD010C944B077B
:100110000C94E2010C94BC060C94DD010C942707AE
:100120000C941B070C94B7010C94E7010C94D901B3
:100130000C94D5010C94B0060C94D1060C940E03CB
:100140000C94C1010C949E060C9406050C94330784
:100150000C94E3010C94A8010C94C7010C943F0784
:100160000C9421090C94DA060C940F070C94E1020C
:100170000C948C060C94A4060C94B4010C94B0015D
:1001800000002100240027002A002D003000330049
:1001900001010000040107010A01000022002500FE
:1001A00028002B002E003100340002010000050160
:1001B00008010B01000020002300260029002C006C
:1001C0002F003200000100000301060109010505AE
:1001D0000505070508080808020202020A0A0808BD
:1001E00004040404010101010101010103030303EB
:1001F00003030303040707070C0C0C0C0C0C0C0C7A
:100200000202020206060606060606060B0B0B0B8A
:100210000B0B0B0B010210202008081020401020AF
:1002200040800201020108040201010204081020BA
:1002300040808040201008040201800402018040B8
:100240002010080402010804020101020408102021
:100250004080010204081020408000000A0B0209BF
:100260000C0D0E0807030401000000000000000050
:10027000000000000000000000000000000000007E
:10028000000000000000121110000000000000003B
:10029000000000000000000000000000000000005E
:1002A000210911241FBECFEFD1E2DEBFCDBF00E098
:1002B0000CBF12E0A0E0B2E0E4EDF6E100E00BBF1D
:1002C00002C007900D92A43AB107D9F722E0A4EA40
:1002D000B2E001C01D92AC3CB207E1F711E0C1E50C
:1002E000D1E000E006C021970109802FFE010E94A5
:1002F000590BC035D10780E00807A9F70E949A077B
:100300000C94680B0C9400008150823108F05AC0A4
:10031000E82FF0E08827E057FE4F8F4F0C94590BE1
:10032000B001B401A201A801AC01E201B701BD0115
:10033000C101C701CB01CF01D501D901E201DD0126
:10034000E301E701809180008F778093800008951A
:10035000809180008F7DF9CF80918000877FF5CFDD
:1003600084B58F7784BD089584B58F7DFBCF809150
:10037000B0008F778093B00008958091B0008F7D9A
:10038000F9CF809190008F778093900008958091AD
:1003900090008F7DF9CF80919000877FF5CF80917D
:1003A000A0008F778093A00008958091A0008F7D9A
:1003B000F9CF8091A000877FF5CF809120018F77C2
:1003C000809320010895809120018F7DF9CF809145
:1003D0002001877FF5CFCF93DF93282F30E0F901FD
:1003E000E65AFD4F8491F901EC5EFD4FD491F9017D
:1003F000E253FE4FC491CC23A1F081110E948401ED
:10040000EC2FF0E0EE0FFF1FEC54FE4FA591B491DE
:10041000EC91ED2381E090E009F480E0DF91CF9151
:10042000089580E090E0FACF1F93CF93DF93282FB9
:1004300030E0F901E65AFD4F8491F901EC5EFD4F81
:10044000D491F901E253FE4FC491CC23A9F0162FA9
:1004500081110E948401EC2FF0E0EE0FFF1FE656A1
:10046000FE4FA591B4918FB7F894EC91111108C08B
:10047000D095DE23DC938FBFDF91CF911F9108953C
:10048000DE2BF8CFCF93DF9390E0FC01EC5EFD4FC5
:10049000249182539E4FFC0184918823D1F090E0F7
:1004A000880F991FFC01E058FE4FA591B491FC0103
:1004B000E656FE4FC591D491623071F49FB7F8941F
:1004C0003C91822F809583238C93E8812E2B288367
:1004D0009FBFDF91CF9108958FB7F894EC912E2BA9
:1004E0002C938FBFF6CF90917B00977F90937B00EA
:1004F0008653806480937C0080917A00806480932E
:100500007A0080917A0086FDFCCF809178009091EE
:10051000790008953FB7F8948091AF029091B002AE
:10052000A091B102B091B20226B5A89B05C02F3FA1
:1005300019F00196A11DB11D3FBFBA2FA92F982F09
:100540008827BC01CD01620F711D811D911D42E004
:10055000660F771F881F991F4A95D1F708958F92CC
:100560009F92AF92BF92CF92DF92EF92FF924B0198
:100570005C010E948A026B017C010E948A026C1954
:100580007D098E099F09683E734081059105A8F396
:1005900021E0821A9108A108B10888EEC80E83E014
:1005A000D81EE11CF11C81149104A104B10429F7A7
:1005B000FF90EF90DF90CF90BF90AF909F908F9083
:1005C0000895AF92BF92CF92DF92EF92FF920F9376
:1005D0001F93CF93DF936C017B018B01040F151FD9
:1005E000EB015E01AE18BF08C017D10759F0699141
:1005F000D601ED91FC910190F081E02DC601199595
:10060000892B79F7C501DF91CF911F910F91FF9051
:10061000EF90DF90CF90BF90AF900895089590E055
:1006200080E0089590910002992319F061E00C9404
:1006300014020895FC0101900020E9F73197AF0101
:10064000481B590BBC0184EB92E00C94E1028F92A1
:100650009F92AF92BF920F931F93CF93DF93CDB72B
:10066000DEB7A1970FB6F894DEBF0FBECDBF19A2BB
:10067000423008F44AE08E010F5D1F4F842E912C0A
:10068000B12CA12CA50194010E94820AE62FB90188
:10069000CA01EA30F4F4E05DD801EE938D01232B1A
:1006A000242B252B79F790E080E0109719F0CD01ED
:1006B0000E941A03A1960FB6F894DEBF0FBECDBFFD
:1006C000DF91CF911F910F91BF90AF909F908F902E
:1006D0000895E95CE1CF0C941A03CF93DF93EC010A
:1006E00060E08E810E94140261E08E810E941402FB
:1006F00060E08E810E9414028BE891E00197F1F78F
:10070000DF91CF910895CF92DF92EF92FF920F93F6
:100710001F93CF93DF936C017C0187E0E80EF11CFF
:10072000D0E0C0E0062F10E0B8010C2E02C0759595
:1007300067950A94E2F76170F70181917F010E9449
:1007400014022196C430D10579F7C601DF91CF910B
:100750001F910F91FF90EF90DF90CF900C946D035D
:10076000CF92DF92EF92FF920F931F93CF93DF937D
:10077000EC01F62E642F8C810E9414028D818F3F34
:1007800019F060E00E9414020F2D10E08F8584FFA5
:1007900025C06E0187E0C80ED11CF12CE12CB801F8
:1007A0000E2C02C0759567950A94E2F76170F60108
:1007B00081916F010E941402FFEFEF1AFF0A88E097
:1007C000E816F10461F7CE01DF91CF911F910F91EF
:1007D000FF90EF90DF90CF900C946D03B80184E010
:1007E000759567958A95E1F7CE010E9483036F2D79
:1007F000CE01DF91CF911F910F91FF90EF90DF908D
:10080000CF900C94830340E0682F84EB92E00C942B
:10081000B00381E00E9403048BE39FE10197F1F7AD
:100820000895CF93DF93823029F49091C3029860AA
:100830009093C3028093C7021092C80280E4809311
:10084000C90280E18093CA0280E58093CB0261E017
:100850008091B8020E9442028091B9028F3F19F044
:1008600061E00E94420261E08091BA020E9442026D
:10087000C4EBD2E09E01245B32408091C30284FD30
:100880000BC084E090E021962817390744F461E01A
:100890008E810E944202EECF88E090E0F4CF8BE39D
:1008A0009DE00197F1F760E08091B8020E94140288
:1008B00060E08091BA020E9414028091B9028F3FD9
:1008C00019F060E00E9414028091C30284FD34C0DC
:1008D00063E084EB92E00E948303CBE4D6E4CE0194
:1008E0000197F1F763E084EB92E00E948303219784
:1008F000F1F763E084EB92E00E94830383E592E0EA
:100900000197F1F762E084EB92E00E94830380910B
:10091000C30280620E94030484E08093C4028CE0DE
:100920000E9403040E94090482E08093C50286E0CD
:10093000DF91CF910C94030480620E9403048BE446
:1009400096E40197F1F78091C30280620E9403044C
:1009500083E592E00197F1F78091C30280620E94E3
:100960000304D5CFE091C702E23040F4E150F0E05B
:10097000EC54FD4F848980680C940304E1E0F7CFC8
:10098000CF93DF93D82F87E30E947302C1E08F3F9C
:10099000910511F00CF0C0E02091A8022C1306C0C4
:1009A000D1112BC08C2FDF91CF9108958F3F9105EE
:1009B00009F064F486E00E9412030E9409048DE0AD
:1009C00092E00E946B030E94B204ECCF60E086E0EC
:1009D0000E9414020E940904D111E4CF89E192E03F
:1009E0000E946B030E94B20468EE73E080E090E026
:1009F0000E94AF020E940904D5CF8F3F9105D1F22A
:100A0000CCF260E086E00E941402F4CF41E00E9444
:100A1000B00381E090E00895CF92DF92EF92FF92D1
:100A20006C01990FEE08FF08F7FE16C041E06DE279
:100A300084EB92E00E94B00366277727CB016C1904
:100A40007D098E099F094AE00E9427030196FF90C5
:100A5000EF90DF90CF9008954AE0C701B601FF9074
:100A6000EF90DF90CF900C9427038F929F92AF92DC
:100A7000BF92CF92DF92EF92FF92CF9388E30E94D2
:100A80007302BC01990F880B990B0E9446092AE05A
:100A900038E240EA5BE30E94A50920E030E048EC40
:100AA00052E40E94A5096B017C01C1E020E030E026
:100AB00048EC51E40E944F0B18160CF0C0E020E007
:100AC00030E048EC51E4C701B6010E944F0B181604
:100AD0000CF0A8C083E10E9412030E94090487E27F
:100AE00092E00E946B03A7019601C701B6010E9424
:100AF000540B8823F9F082E392E00E941A038EE3FC
:100B000092E00E946B030E94B20481E492E00E9492
:100B10006B036CE271E080E090E00E94AF028C2FEA
:100B2000CF91FF90EF90DF90CF90BF90AF909F90CC
:100B30008F90089546015701E894B7F82FEF3FEFE3
:100B40004FE75FE7C501B4010E94540B81110DC04E
:100B50002FEF3FEF4FE75FE7C501B4010E943F0968
:100B600018161CF486E392E0C8CF2FEF3FEF4FE753
:100B70005FE4C701B6010E944F0B18161CF48AE30C
:100B800092E0BBCF2FEF3FEF4FE75FECC701B6011D
:100B90000E943F0987FDF3CF20E030E0A901C701A3
:100BA000B6010E943F0987FF0AC041E06DE284EB75
:100BB00092E00E94B003F7FAF094F7F8F0942DEC6D
:100BC0003CEC4CE45DE3C701B6010E94B40A4B0162
:100BD0005C010E94200B6B017C010E9444099B0177
:100BE000AC01C501B4010E94B30A4B015C014AE0AB
:100BF000C701B6010E94270341E06EE284EB92E058
:100C00000E94B00320E030E040E251E4C501B401AD
:100C10000E94A5090E94200B90E080E04AE00E941B
:100C200027036DCF60E083E10E9414028091B3023C
:100C3000882309F474CF0E94090471CFCF93DF9306
:100C4000D82F84E10E94EB01C1E0009709F0C0E0D9
:100C50002091A9022C1302C0DD2311F1892B21F56B
:100C600061E08AE00E94420260E08AE00E94140291
:100C700061E089E00E94420260E089E00E94140283
:100C800061E088E00E94420260E088E00E94140275
:100C90000E94090468E270E080E090E00E94AF02E8
:100CA0008C2FDF91CF91089560E082E10E941402C1
:100CB00061E08AE00E94420261E08AE00E94140240
:100CC00061E089E00E94420260E089E00E94140233
:100CD00061E088E00E944202E2E6F2E0E491E15045
:100CE000E23108F0D8C0F0E08827E658F94F8F4F7E
:100CF0000C94590B8C069E06A406B006BC064B0746
:100D0000C806D106DA06E606F206FE060F071B073E
:100D10004B07270733073F0784B5806884BD84E607
:100D200087BD0E9409048CE492E00E946B030E943C
:100D3000B2048DE592E00E946B03B2CF84B580626D
:100D400084BD84E688BDEDCF80918000806880936B
:100D5000800084E690E09093890080938800E1CF42
:100D60008091800080628093800084E690E0909380
:100D70008B0080938A00D5CF80918000886080931B
:100D8000800084E690E090938D0080938C00C9CF22
:100D90008091B00080688093B00084E68093B300B7
:100DA000C0CF8091B00080628093B00084E68093D1
:100DB000B400B7CF8091900080688093900084E663
:100DC00090E09093990080939800ABCF8091900031
:100DD00080628093900084E690E090939B008093E3
:100DE0009A009FCF8091900088608093900084E665
:100DF00090E090939D0080939C0093CF8091A00001
:100E000080688093A0008091A0008F7B8093A000D9
:100E100084E690E09093A9008093A80082CF80910F
:100E2000A00080628093A00084E690E09093AB00E5
:100E30008093AA0076CF8091A00088608093A00064
:100E400084E690E09093AD008093AC006ACF8091EF
:100E5000200180688093200184E690E0909329012E
:100E6000809328015ECF80912001806280932001D1
:100E700084E690E090932B0180932A0152CF8091D9
:100E8000200188608093200184E690E090932D01FA
:100E900080932C0146CF60E088E00E94140241CF8D
:100EA0001F920F920FB60F9211242F933F938F939F
:100EB0009F93AF93BF938091AB029091AC02A091AE
:100EC000AD02B091AE023091AA0223E0230F2D377C
:100ED00058F50196A11DB11D2093AA028093AB0283
:100EE0009093AC02A093AD02B093AE028091AF029A
:100EF0009091B002A091B102B091B2020196A11DF1
:100F0000B11D8093AF029093B002A093B102B09351
:100F1000B202BF91AF919F918F913F912F910F900E
:100F20000FBE0F901F90189526E8230F0296A11D63
:100F3000B11DD2CF789484B5826084BD84B58160C0
:100F400084BD85B5826085BD85B5816085BD809194
:100F50006E00816080936E0010928100809181000C
:100F60008260809381008091810081608093810004
:100F7000809180008160809380008091B1008460C6
:100F80008093B1008091B00081608093B000809127
:100F900091008260809391008091910081608093A4
:100FA0009100809190008160809390008091A100D9
:100FB00082608093A1008091A10081608093A10054
:100FC0008091A00081608093A000809121018260C7
:100FD0008093210180912101816080932101809182
:100FE000200181608093200180917A008460809349
:100FF0007A0080917A00826080937A0080917A00F2
:10100000816080937A0080917A00806880937A0072
:101010001092C10062E084E10E94420262E08EE030
:101020000E94420261E082E10E94420261E083E1AB
:101030000E94420261E08BE00E94420261E086E091
:101040000E94420282E00E94110461E08AE00E9454
:10105000420261E089E00E94420261E088E00E9471
:10106000420281E00E941E0681E00E94C0040E94AC
:10107000350564E670E080E090E00E94AF028824CD
:101080008A9493E0992EA12CB12CC0E0D0E011E01D
:1010900080E00E941E068093A90280E00E94C004A6
:1010A0008093A8020E9435058093B30286E30E94D4
:1010B000730224E630E0DC010E94610BA50194017B
:1010C0000E94630A6901C9012550310925303105A3
:1010D00008F05DC061E08BE00E9414020E940904E8
:1010E0008CE692E00E946B030E94B2048FE792E0CC
:1010F0000E946B03C6010E940C056CE271E080E067
:1011000090E00E94AF028EE00E94EB01892BC9F5AE
:101110002FB7F8948091AB029091AC02A091AD02F0
:10112000B091AE022FBF4091A4025091A5026091F0
:10113000A6027091A702841B950BA60BB70B893CE6
:101140009105A105B105E8F02FB7F8948091AB02A5
:101150009091AC02A091AD02B091AE022FBF8093EE
:10116000A4029093A502A093A602B093A70282E1E5
:101170000E94EB01892B09F45BC060E082E10E94D0
:101180001402209709F484CF0E94000081CF9601B9
:10119000215031092430310558F50E9409048CE6AC
:1011A00092E00E946B030E94B2048BE792E00E94DF
:1011B0006B03C6010E940C0585E0E82EF12C60E06F
:1011C0008BE00E94140262E370E080E090E00E94F5
:1011D000AF0261E08BE00E94140262E370E080E005
:1011E00090E00E94AF0281E0E81AF10841F78BCF4E
:1011F00018161906BCF060E08BE00E9414021092F1
:10120000000260E082E10E9414020E94090489E861
:1012100092E00E946B030E94B20485E992E00E9472
:101220006B0371CF0B970CF46ECF109300026BCF52
:101230008091A902882309F4A4CF82E10E941203BD
:10124000A0CFE4EBF2E01382128285E092E091837A
:1012500080838CE084838FEF858387E0868385E0BD
:10126000878384E0808783E0818782E0828713869A
:10127000148615861686178681E00C9411040E9448
:10128000810908F481E00895E89409C097FB3EF4D1
:1012900090958095709561957F4F8F4F9F4F9923C3
:1012A000A9F0F92F96E9BB279395F6958795779541
:1012B0006795B795F111F8CFFAF4BB0F11F460FF01
:1012C0001BC06F5F7F4F8F4F9F4F16C0882311F059
:1012D00096E911C0772321F09EE8872F762F05C06D
:1012E000662371F096E8862F70E060E02AF09A9508
:1012F000660F771F881FDAF7880F9695879597F9FD
:101300000895990F0008550FAA0BE0E8FEEF161696
:101310001706E807F907C0F012161306E407F507E9
:1013200098F0621B730B840B950B39F40A2661F05D
:10133000232B242B252B21F408950A2609F4A14000
:10134000A6958FEF811D811D08950E94B8090C9408
:10135000290A0E941B0A38F00E94220A20F09523D5
:1013600011F00C94120A0C94180A11240C945D0AC2
:101370000E943A0A70F3959FC1F3950F50E0551FF4
:10138000629FF001729FBB27F00DB11D639FAA27DA
:10139000F00DB11DAA1F649F6627B00DA11D661F29
:1013A000829F2227B00DA11D621F739FB00DA11D4A
:1013B000621F839FA00D611D221F749F3327A00D04
:1013C000611D231F849F600D211D822F762F6A2FA0
:1013D00011249F5750409AF0F1F088234AF0EE0F05
:1013E000FF1FBB1F661F771F881F91505040A9F732
:1013F0009E3F510580F00C94120A0C945D0A5F3FE9
:10140000E4F3983ED4F3869577956795B795F7956D
:10141000E7959F5FC1F7FE2B880F911D96958795E5
:1014200097F9089597F99F6780E870E060E0089564
:101430009FEF80EC089500240A94161617061806EC
:101440000906089500240A941216130614060506C8
:101450000895092E0394000C11F4882352F0BB0F59
:1014600040F4BF2B11F460FF04C06F5F7F4F8F4FBC
:101470009F4F089557FD9058440F551F59F05F3FF7
:1014800071F04795880F97FB991F61F09F3F79F0A6
:1014900087950895121613061406551FF2CF469528
:1014A000F1DF08C0161617061806991FF1CF8695AA
:1014B0007105610508940895E894BB27662777278E
:1014C000CB0197F90895052E97FB1EF400940E9416
:1014D0007A0A57FD07D00E94820A07FC03D04EF417
:1014E0000C947A0A50954095309521953F4F4F4F77
:1014F0005F4F089590958095709561957F4F8F4FC0
:101500009F4F0895A1E21A2EAA1BBB1BFD010DC01F
:10151000AA1FBB1FEE1FFF1FA217B307E407F507A3
:1015200020F0A21BB30BE40BF50B661F771F881F7F
:10153000991F1A9469F760957095809590959B0115
:10154000AC01BD01CF010895A29FB001B39FC001BE
:10155000A39F700D811D1124911DB29F700D811DDF
:101560001124911D08955058BB27AA270E94CB0A29
:101570000C94290A0E941B0A38F00E94220A20F0CB
:1015800039F49F3F19F426F40C94180A0EF4E095F0
:10159000E7FB0C94120AE92F0E943A0A58F3BA1793
:1015A000620773078407950720F079F4A6F50C9479
:1015B0005C0A0EF4E0950B2EBA2FA02D0B01B90199
:1015C00090010C01CA01A0011124FF27591B99F0B9
:1015D000593F50F4503E68F11A16F040A22F232FC5
:1015E000342F4427585FF3CF469537952795A79515
:1015F000F0405395C9F77EF41F16BA0B620B730BBC
:10160000840BBAF09150A1F0FF0FBB1F661F771F2C
:10161000881FC2F70EC0BA0F621F731F841F48F4E1
:10162000879577956795B795F7959E3F08F0B0CF6A
:101630009395880F08F09927EE0F97958795089551
:101640000E94420A88F09F5798F0B92F9927B75106
:10165000B0F0E1F0660F771F881F991F1AF0BA9556
:10166000C9F714C0B13091F00E945C0AB1E008954E
:101670000C945C0A672F782F8827B85F39F0B93F40
:10168000CCF3869577956795B395D9F73EF4909509
:101690008095709561957F4F8F4F9F4F08950E9461
:1016A000810908F48FEF08950E948109880B990B36
:1016B0000895EE0FFF1F881F8BBF0790F691E02D56
:1016C00019940E94A40AB7FF0895821B930B0895F2
:0416D000F894FFCFBC
:1016D40001000000000605E1020F030E03466172DB
:1016E4006C6172204163696B004661726C617220A7
:1016F4004B6170616C6900536963616B6C696B3A2F
:1017040020006E616E00696E66006F76660020438D
:10171400004B6C696D61204163696B00557961729E
:10172400693A204B617069204163696B004D6F74A5
:101734006F722043616C69736D617A0059616B69E2
:101744007420536576697965736900436F6B20442F
:101754007573756B202D20250059616B69742042C7
:1017640069747469004D6F746F72204B6170616E9F
:0417740064690000A4
:00000001FF
