:100000000C9451010C9482010C9482010C94820195
:100010000C9482010C9482010C9482010C94820154
:100020000C9482010C9482010C9482010C94820144
:100030000C9482010C9482010C9482010C94820134
:100040000C9482010C9482010C9482010C94820124
:100050000C9482010C9482010C9482010C9451073F
:100060000C9482010C9482010C9482010C94820104
:100070000C9482010C9482010C9482010C948201F4
:100080000C9482010C9482010C9482010C948201E4
:100090000C9482010C9482010C9482010C948201D4
:1000A0000C9482010C9482010C9482010C948201C4
:1000B0000C9482010C9482010C9482010C948201B4
:1000C0000C9482010C9482010C9482010C948201A4
:1000D0000C9482010C9482010C9482010C94820194
:1000E0000C9482010C94A5060C94AC010C9434077A
:1000F0000C948D060C94A2010C94CB010C940F036C
:100100000C94CF010C94BD010C94E2010C944C07AB
:100110000C94FF060C94DD010C94B7010C94E701DC
:100120000C94D9010C94D5010C94B1060C941F05C4
:100130000C94B3090C94C9060C940E030C9410078C
:100140000C941C070C94BD060C94C1010C94DB06A6
:100150000C9440070C94E3010C9428070C94A8011C
:100160000C94C7010C94E7060C949F060C94F306BC
:100170000C94E1020C94B4010C94B0010C94D206DE
:1001800000002100240027002A002D003000330049
:1001900001010000040107010A01000022002500FE
:1001A00028002B002E003100340002010000050160
:1001B00008010B01000020002300260029002C006C
:1001C0002F003200000100000301060109010505AE
:1001D0000505070508080808020202020A0A0808BD
:1001E00004040404010101010101010103030303EB
:1001F00003030303040707070C0C0C0C0C0C0C0C7A
:100200000202020206060606060606060B0B0B0B8A
:100210000B0B0B0B010210202008081020401020AF
:1002200040800201020108040201010204081020BA
:1002300040808040201008040201800402018040B8
:100240002010080402010804020101020408102021
:100250004080010204081020408000000A0B0209BF
:100260000C0D0E0807030401000000000000000050
:10027000000000000000000000000000000000007E
:10028000000000000000121110000000000000003B
:10029000000000000000000000000000000000005E
:1002A000B30911241FBECFEFD1E2DEBFCDBF00E006
:1002B0000CBF12E0A0E0B2E0E8EFF7E100E00BBF16
:1002C00002C007900D92A23CB107D9F722E0A2EC40
:1002D000B2E001C01D92AB3EB207E1F711E0C1E50B
:1002E000D1E000E006C021970109802FFE010E94A5
:1002F000EB0BC035D10780E00807A9F70E949B07E8
:100300000C94FA0B0C9400008150823108F05AC012
:10031000E82FF0E08827E057FE4F8F4F0C94EB0B4F
:10032000B001B401A201A801AC01E201B701BD0115
:10033000C101C701CB01CF01D501D901E201DD0126
:10034000E301E701809180008F778093800008951A
:10035000809180008F7DF9CF80918000877FF5CFDD
:1003600084B58F7784BD089584B58F7DFBCF809150
:10037000B0008F778093B00008958091B0008F7D9A
:10038000F9CF809190008F778093900008958091AD
:1003900090008F7DF9CF80919000877FF5CF80917D
:1003A000A0008F778093A00008958091A0008F7D9A
:1003B000F9CF8091A000877FF5CF809120018F77C2
:1003C000809320010895809120018F7DF9CF809145
:1003D0002001877FF5CFCF93DF93282F30E0F901FD
:1003E000E65AFD4F8491F901EC5EFD4FD491F9017D
:1003F000E253FE4FC491CC23A1F081110E948401ED
:10040000EC2FF0E0EE0FFF1FEC54FE4FA591B491DE
:10041000EC91ED2381E090E009F480E0DF91CF9151
:10042000089580E090E0FACF1F93CF93DF93282FB9
:1004300030E0F901E65AFD4F8491F901EC5EFD4F81
:10044000D491F901E253FE4FC491CC23A9F0162FA9
:1004500081110E948401EC2FF0E0EE0FFF1FE656A1
:10046000FE4FA591B4918FB7F894EC91111108C08B
:10047000D095DE23DC938FBFDF91CF911F9108953C
:10048000DE2BF8CFCF93DF9390E0FC01EC5EFD4FC5
:10049000249182539E4FFC0184918823D1F090E0F7
:1004A000880F991FFC01E058FE4FA591B491FC0103
:1004B000E656FE4FC591D491623071F49FB7F8941F
:1004C0003C91822F809583238C93E8812E2B288367
:1004D0009FBFDF91CF9108958FB7F894EC912E2BA9
:1004E0002C938FBFF6CF90917B00977F90937B00EA
:1004F0008653806480937C0080917A00806480932E
:100500007A0080917A0086FDFCCF809178009091EE
:10051000790008953FB7F8948091CE029091CF0270
:10052000A091D002B091D10226B5A89B05C02F3F63
:1005300019F00196A11DB11D3FBFBA2FA92F982F09
:100540008827BC01CD01620F711D811D911D42E004
:10055000660F771F881F991F4A95D1F708958F92CC
:100560009F92AF92BF92CF92DF92EF92FF924B0198
:100570005C010E948A026B017C010E948A026C1954
:100580007D098E099F09683E734081059105A8F396
:1005900021E0821A9108A108B10888EEC80E83E014
:1005A000D81EE11CF11C81149104A104B10429F7A7
:1005B000FF90EF90DF90CF90BF90AF909F908F9083
:1005C0000895AF92BF92CF92DF92EF92FF920F9376
:1005D0001F93CF93DF936C017B018B01040F151FD9
:1005E000EB015E01AE18BF08C017D10759F0699141
:1005F000D601ED91FC910190F081E02DC601199595
:10060000892B79F7C501DF91CF911F910F91FF9051
:10061000EF90DF90CF90BF90AF900895089590E055
:1006200080E0089590910002992319F061E00C9404
:100630001402089560E00C941402FC010190002063
:10064000E9F73197AF01481B590BBC0183ED92E0EC
:100650000C94E1028F929F92AF92BF920F931F93DF
:10066000CF93DF93CDB7DEB7A1970FB6F894DEBF77
:100670000FBECDBF19A2423008F44AE08E010F5DD3
:100680001F4F842E912CB12CA12CA50194010E9406
:10069000140BE62FB901CA01EA30F4F4E05DD80189
:1006A000EE938D01232B242B252B79F790E080E00E
:1006B000109719F0CD010E941D03A1960FB6F89472
:1006C000DEBF0FBECDBFDF91CF911F910F91BF90C5
:1006D000AF909F908F900895E95CE1CF0C941D033B
:1006E00061E08AE00E94420260E08AE00E94140217
:1006F00061E089E00E94420260E089E00E94140209
:1007000061E088E00E94420260E088E00C941402FC
:10071000CF93DF93EC0160E08E810E94140261E0D0
:100720008E810E94140260E08E810E9414028BE888
:1007300091E00197F1F7DF91CF910895CF92DF9289
:10074000EF92FF920F931F93CF93DF936C017C0185
:1007500087E0E80EF11CD0E0C0E0062F10E0B80101
:100760000C2E02C0759567950A94E2F76170F70147
:1007700081917F010E9414022196C430D10579F73E
:10078000C601DF91CF911F910F91FF90EF90DF9005
:10079000CF900C948803CF92DF92EF92FF920F9349
:1007A0001F93CF93DF93EC01F62E642F8C810E9470
:1007B00014028D818F3F19F060E00E9414020F2D0A
:1007C00010E08F8584FF25C06E0187E0C80ED11C24
:1007D000F12CE12CB8010E2C02C0759567950A9496
:1007E000E2F76170F60181916F010E941402FFEF40
:1007F000EF1AFF0A88E0E816F10461F7CE01DF91F5
:10080000CF911F910F91FF90EF90DF90CF900C94BC
:100810008803B80184E0759567958A95E1F7CE0164
:100820000E949E036F2DCE01DF91CF911F910F91FA
:10083000FF90EF90DF90CF900C949E0340E0682FE4
:1008400083ED92E00C94CB0381E00E941E048BE3C5
:100850009FE10197F1F70895CF93DF93823029F458
:100860009091E20298609093E2028093E6021092E7
:10087000E70280E48093E80280E18093E90280E56A
:100880008093EA0261E08091D7020E944202809147
:10089000D8028F3F19F061E00E94420261E080912E
:1008A000D9020E944202C3EDD2E09E01235D324094
:1008B0008091E20284FD0BC084E090E0219628172D
:1008C000390744F461E08E810E944202EECF88E055
:1008D00090E0F4CF8BE39DE00197F1F760E0809129
:1008E000D7020E94140260E08091D9020E94140293
:1008F0008091D8028F3F19F060E00E94140280912D
:10090000E20284FD34C063E083ED92E00E949E0326
:10091000CBE4D6E4CE010197F1F763E083ED92E0FA
:100920000E949E032197F1F763E083ED92E00E941D
:100930009E0383E592E00197F1F762E083ED92E098
:100940000E949E038091E20280620E941E0484E065
:100950008093E3028CE00E941E040E94240482E043
:100960008093E40286E0DF91CF910C941E048062B4
:100970000E941E048BE496E40197F1F78091E20255
:1009800080620E941E0483E592E00197F1F7809156
:10099000E20280620E941E04D5CFE091E602E230BE
:1009A00040F4E150F0E0ED52FD4F848980680C94F2
:1009B0001E04E1E0F7CFCF93DF93D82F87E30E94A7
:1009C0007302C1E08F3F910511F00CF0C0E020915F
:1009D000C8022C1306C0D1112AC08C2FDF91CF91F1
:1009E00008958F3F910509F064F486E00E94120398
:1009F0000E9424048DE092E00E946E030E94CD04C8
:100A0000ECCF86E00E941A030E942404D111E5CFA6
:100A100089E192E00E946E030E94CD0468EE73E0CB
:100A200080E090E00E94AF020E942404D6CF8F3F66
:100A30009105D9F2D4F286E00E941A03F5CF41E085
:100A40000E94CB0381E090E00895CF92DF92EF9275
:100A5000FF926C01990FEE08FF08F7FE16C041E007
:100A60006DE283ED92E00E94CB0366277727CB01EE
:100A70006C197D098E099F094AE00E942A0301969C
:100A8000FF90EF90DF90CF9008954AE0C701B60144
:100A9000FF90EF90DF90CF900C942A038F929F925B
:100AA000AF92BF92CF92DF92EF92FF92CF9388E303
:100AB0000E947302BC01990F880B990B0E94D80900
:100AC0002AE038E240EA5BE30E94370A20E030E0A7
:100AD00048EC52E40E94370A6B017C01C1E020E03F
:100AE00030E048EC51E40E94E10B18160CF0C0E035
:100AF00020E030E048EC51E4C701B6010E94E10B70
:100B000018160CF0A8C083E10E9412030E9424046E
:100B100088E292E00E946E03A7019601C701B60128
:100B20000E94E60B8823F9F083E392E00E941D0304
:100B30008FE392E00E946E030E94CD0482E492E073
:100B40000E946E036CE271E080E090E00E94AF02D0
:100B50008C2FCF91FF90EF90DF90CF90BF90AF9010
:100B60009F908F90089546015701E894B7F82FEFB2
:100B70003FEF4FE75FE7C501B4010E94E60B81112B
:100B80000DC02FEF3FEF4FE75FE7C501B4010E94B3
:100B9000D10918161CF487E392E0C8CF2FEF3FEF7E
:100BA0004FE75FE4C701B6010E94E10B18161CF481
:100BB0008BE392E0BBCF2FEF3FEF4FE75FECC70136
:100BC000B6010E94D10987FDF3CF20E030E0A901F2
:100BD000C701B6010E94D10987FF0AC041E06DE25A
:100BE00083ED92E00E94CB03F7FAF094F7F8F094CB
:100BF0002DEC3CEC4CE45DE3C701B6010E94460BD2
:100C00004B015C010E94B20B6B017C010E94D60972
:100C10009B01AC01C501B4010E94450B4B015C0175
:100C20004AE0C701B6010E942A0341E06EE283ED6B
:100C300092E00E94CB0320E030E040E251E4C501A5
:100C4000B4010E94370A0E94B20B90E080E04AE0B3
:100C50000E942A036DCF83E10E941A038091D20281
:100C6000882309F475CF0E94240472CFCF93DF93B9
:100C7000D82F85E10E94EB01C1E0009709F0C0E0A8
:100C80002091C6022C1302C0DD2361F0892B71F480
:100C90000E9470030E94240468E270E080E090E00B
:100CA0000E94AF028C2FDF91CF91089582E10E94C4
:100CB0001A0361E08AE00E94420261E08AE00E9439
:100CC000140261E089E00E94420260E089E00E9433
:100CD000140261E088E00E944202E2E6F2E0E49160
:100CE000E150E23108F0D8C0F0E08827E558F94F2C
:100CF0008F4F0C94EB0B8D069F06A506B106BD0623
:100D00004C07C906D206DB06E706F306FF06100706
:100D10001C074C0728073407400784B5806884BD4A
:100D200084E687BD0E9424048DE492E00E946E0355
:100D30000E94CD048EE592E00E946E03B3CF84B58D
:100D4000806284BD84E688BDEDCF8091800080689C
:100D50008093800084E690E09093890080938800DF
:100D6000E1CF8091800080628093800084E690E0F3
:100D700090938B0080938A00D5CF8091800088600B
:100D80008093800084E690E090938D0080938C00A7
:100D9000C9CF8091B00080688093B00084E68093D2
:100DA000B300C0CF8091B00080628093B00084E631
:100DB0008093B400B7CF80919000806880939000BA
:100DC00084E690E09093990080939800ABCF809157
:100DD000900080628093900084E690E090939B0066
:100DE00080939A009FCF80919000886080939000BC
:100DF00084E690E090939D0080939C0093CF809137
:100E0000A00080688093A0008091A0008F7B8093D9
:100E1000A00084E690E09093A9008093A80082CF80
:100E20008091A00080628093A00084E690E090937F
:100E3000AB008093AA0076CF8091A0008860809359
:100E4000A00084E690E09093AD008093AC006ACF60
:100E50008091200180688093200184E690E0909347
:100E60002901809328015ECF8091200180628093C8
:100E7000200184E690E090932B0180932A0152CFC9
:100E80008091200188608093200184E690E0909317
:100E90002D0180932C0146CF60E088E00E9414026F
:100EA00041CF1F920F920FB60F9211242F933F93B1
:100EB0008F939F93AF93BF938091CA029091CB027F
:100EC000A091CC02B091CD023091C90223E0230F52
:100ED0002D3758F50196A11DB11D2093C9028093AD
:100EE000CA029093CB02A093CC02B093CD02809122
:100EF000CE029091CF02A091D002B091D102019682
:100F0000A11DB11D8093CE029093CF02A093D00279
:100F1000B093D102BF91AF919F918F913F912F914B
:100F20000F900FBE0F901F90189526E8230F029682
:100F3000A11DB11DD2CF789484B5826084BD84B5E3
:100F4000816084BD85B5826085BD85B5816085BDC4
:100F500080916E00816080936E001092810080917C
:100F60008100826080938100809181008160809304
:100F70008100809180008160809380008091B10029
:100F800084608093B1008091B00081608093B00054
:100F900080919100826080939100809191008160A6
:100FA0008093910080919000816080939000809167
:100FB000A10082608093A1008091A1008160809354
:100FC000A1008091A00081608093A0008091210108
:100FD00082608093210180912101816080932101B1
:100FE0008091200181608093200180917A0084604B
:100FF00080937A0080917A00826080937A00809159
:101000007A00816080937A0080917A008068809372
:101010007A001092C10062E085E10E94420262E023
:101020008EE00E94420262E081E10E94420261E0A1
:1010300082E10E94420261E083E10E94420261E09B
:101040008BE00E94420261E086E00E94420261E081
:101050008DE00E94420261E084E10E94420282E04F
:101060000E942C0461E08AE00E94420261E089E073
:101070000E94420261E088E00E94420281E00E94F8
:1010800036068093C60281E00E94DB048093C8028A
:101090000E944E058093D20288248A9493E0992E70
:1010A000A12CB12CC0E0D0E011E080E00E94DB0474
:1010B0008093C8020E944E058093D20281E10E9473
:1010C000EB01892B09F03DC02FB7F8948091CA023B
:1010D0009091CB02A091CC02B091CD022FBF409154
:1010E000C2025091C3026091C4027091C502841B78
:1010F000950BA60BB70B893C9105A105B10508F12D
:101100002FB7F8948091CA029091CB02A091CC02A3
:10111000B091CD022FBF8093C2029093C302A093DF
:10112000C402B093C5028DE00E94EB01892B09F443
:1011300086C00E9424048DE00E941A0384E10E946C
:101140001A038DE00E94EB0121E0892B09F020E0D9
:101150002093C70286E30E94730224E630E0DC019C
:101160000E94F30BA50194010E94F50A6901C901CF
:10117000255031092530310508F077C061E08BE05A
:101180000E9414020E9424048AE892E00E946E03E6
:101190000E94CD048DE992E00E946E03C6010E9478
:1011A00025056CE271E080E090E00E94AF028EE0E5
:1011B0000E94EB01892BC1F52FB7F8948091CA02E8
:1011C0009091CB02A091CC02B091CD022FBF409163
:1011D000C2025091C3026091C4027091C502841B87
:1011E000950BA60BB70B893C9105A105B105E0F065
:1011F0002FB7F8948091CA029091CB02A091CC02B3
:10120000B091CD022FBF8093C2029093C302A093EE
:10121000C402B093C50282E10E94EB01892B09F45C
:101220008FC082E10E941A0380E00E9436068093FC
:10123000C602209709F439CF0E94000036CF0E94E1
:1012400024048DE692E00E946E030E94CD048CE798
:1012500092E00E946E038DE00E94120382E10E94E0
:101260001A0384E10E9412036CCF960121503109C8
:101270002430310550F50E9424048AE892E00E944F
:101280006E030E94CD0489E992E00E946E03C601BC
:101290000E94250585E0E82EF12C8BE00E941A03C0
:1012A00062E370E080E090E00E94AF0261E08BE0DA
:1012B0000E94140262E370E080E090E00E94AF02BE
:1012C00081E0E81AF10849F772CF181619061CF1E7
:1012D0008BE00E941A031092000286E00E941A031B
:1012E0008DE00E941A0383E10E941A0384E10E94A8
:1012F0001A0382E10E941A030E9470030E942404D0
:1013000087EA92E00E946E030E94CD0483EB92E094
:101310000E946E034CCF0B970CF449CF80910002D2
:10132000811108C00E942404109300028BE00E94E7
:101330001A033DCF8BE00E94EB01892B99F7F4CF84
:101340008091C602882309F46FCF8091C702882359
:1013500009F46ACF80910002882309F465CF82E105
:101360000E94120361CFE3EDF2E01382128285E066
:1013700092E0918380838CE084838FEF858387E084
:10138000868385E0878384E0808783E0818782E0AD
:1013900082871386148615861686178681E00C943C
:1013A0002C040E94130A08F481E00895E89409C00F
:1013B00097FB3EF490958095709561957F4F8F4F88
:1013C0009F4F9923A9F0F92F96E9BB279395F6959E
:1013D000879577956795B795F111F8CFFAF4BB0F1C
:1013E00011F460FF1BC06F5F7F4F8F4F9F4F16C080
:1013F000882311F096E911C0772321F09EE8872F0A
:10140000762F05C0662371F096E8862F70E060E0C5
:101410002AF09A95660F771F881FDAF7880F96953E
:10142000879597F90895990F0008550FAA0BE0E8E2
:10143000FEEF16161706E807F907C0F01216130696
:10144000E407F50798F0621B730B840B950B39F4D6
:101450000A2661F0232B242B252B21F408950A263C
:1014600009F4A140A6958FEF811D811D08950E946A
:101470004A0A0C94BB0A0E94AD0A38F00E94B40AD2
:1014800020F0952311F00C94A40A0C94AA0A1124BC
:101490000C94EF0A0E94CC0A70F3959FC1F3950F4C
:1014A00050E0551F629FF001729FBB27F00DB11DE8
:1014B000639FAA27F00DB11DAA1F649F6627B00D78
:1014C000A11D661F829F2227B00DA11D621F739F61
:1014D000B00DA11D621F839FA00D611D221F749F6F
:1014E0003327A00D611D231F849F600D211D822FB6
:1014F000762F6A2F11249F5750409AF0F1F08823DD
:101500004AF0EE0FFF1FBB1F661F771F881F915009
:101510005040A9F79E3F510580F00C94A40A0C940A
:10152000EF0A5F3FE4F3983ED4F38695779567958D
:10153000B795F795E7959F5FC1F7FE2B880F911D33
:101540009695879597F9089597F99F6780E870E0D9
:1015500060E008959FEF80EC089500240A94161629
:10156000170618060906089500240A941216130691
:10157000140605060895092E0394000C11F488231F
:1015800052F0BB0F40F4BF2B11F460FF04C06F5F3B
:101590007F4F8F4F9F4F089557FD9058440F551F11
:1015A00059F05F3F71F04795880F97FB991F61F0E5
:1015B0009F3F79F087950895121613061406551F5C
:1015C000F2CF4695F1DF08C0161617061806991FC8
:1015D000F1CF86957105610508940895E894BB27BD
:1015E00066277727CB0197F90895052E97FB1EF400
:1015F00000940E940C0B57FD07D00E94140B07FCAF
:1016000003D04EF40C940C0B5095409530952195D9
:101610003F4F4F4F5F4F089590958095709561951E
:101620007F4F8F4F9F4F0895A1E21A2EAA1BBB1B1D
:10163000FD010DC0AA1FBB1FEE1FFF1FA217B3079E
:10164000E407F50720F0A21BB30BE40BF50B661FB4
:10165000771F881F991F1A9469F760957095809578
:1016600090959B01AC01BD01CF010895A29FB001EF
:10167000B39FC001A39F700D811D1124911DB29FC6
:10168000700D811D1124911D08955058BB27AA2764
:101690000E945D0B0C94BB0A0E94AD0A38F00E94B8
:1016A000B40A20F039F49F3F19F426F40C94AA0AE6
:1016B0000EF4E095E7FB0C94A40AE92F0E94CC0AF3
:1016C00058F3BA17620773078407950720F079F477
:1016D000A6F50C94EE0A0EF4E0950B2EBA2FA02D71
:1016E0000B01B90190010C01CA01A0011124FF27CF
:1016F000591B99F0593F50F4503E68F11A16F040CA
:10170000A22F232F342F4427585FF3CF46953795C8
:101710002795A795F0405395C9F77EF41F16BA0B8D
:10172000620B730B840BBAF09150A1F0FF0FBB1F3B
:10173000661F771F881FC2F70EC0BA0F621F731F84
:10174000841F48F4879577956795B795F7959E3FE1
:1017500008F0B0CF9395880F08F09927EE0F979572
:10176000879508950E94D40A88F09F5798F0B92F62
:101770009927B751B0F0E1F0660F771F881F991FC6
:101780001AF0BA95C9F714C0B13091F00E94EE0A70
:10179000B1E008950C94EE0A672F782F8827B85F80
:1017A00039F0B93FCCF3869577956795B395D9F71E
:1017B0003EF490958095709561957F4F8F4F9F4F28
:1017C00008950E94130A08F48FEF08950E94130AE7
:1017D000880B990B0895EE0FFF1F881F8BBF079092
:1017E000F691E02D19940E94360BB7FF0895821BE5
:0817F000930B0895F894FFCF5C
:1017F80001000000001F05E1020F030E034661729D
:101808006C6172204163696B004661726C61722081
:101818004B6170616E646900536963616B6C696BDD
:101828003A20006E616E00696E66006F7666002071
:1018380043004B6C696D61204163696B00557961A8
:1018480072693A204B617069204163696B004D6F82
:10185800746F722043616C69736D617A00456D6EB7
:1018680069796574204B656D6572690054616B69AF
:101878006C6920446567696C210059616B69742043
:10188800536576697965736900436F6B2044757396
:10189800756B202D20250059616B6974204269748D
:1018A8007469004D6F746F72204B6170616E64696A
:0218B80000002E
:00000001FF
