:100000000C9451010C9482010C9482010C94820195
:100010000C9482010C9482010C9482010C94820154
:100020000C9482010C9482010C9482010C94820144
:100030000C9482010C9482010C9482010C94820134
:100040000C9482010C9482010C9482010C94820124
:100050000C9482010C9482010C9482010C9414047F
:100060000C9482010C9482010C9482010C94820104
:100070000C9482010C9482010C9482010C948201F4
:100080000C9482010C9482010C9482010C948201E4
:100090000C9482010C9482010C9482010C948201D4
:1000A0000C9482010C9482010C9482010C948201C4
:1000B0000C9482010C9482010C9482010C948201B4
:1000C0000C9482010C9482010C9482010C948201A4
:1000D0000C9482010C9482010C9482010C94820194
:1000E0000C9482010C9476060C94A8010C945B0687
:1000F0000C9498020C94A2010C940E040C94C60269
:100100000C94C7010C94B9050C94E7010C944706B4
:100110000C9400060C94DD050C94CB010C94BD01ED
:100120000C94B0010C941A060C9465060C94E20130
:100130000C94F6050C9451060C94B4010C94E30154
:100140000C94C1010C94D5010C94D9010C94AC0110
:100150000C943D060C942E060C94EC050C94E205D0
:100160000C946F060C9424060C94B7010C94DD01DA
:100170000C9408060C94CF010C9410060C94C50244
:1001800000002100240027002A002D003000330049
:1001900001010000040107010A01000022002500FE
:1001A00028002B002E003100340002010000050160
:1001B00008010B01000020002300260029002C006C
:1001C0002F003200000100000301060109010505AE
:1001D0000505070508080808020202020A0A0808BD
:1001E00004040404010101010101010103030303EB
:1001F00003030303040707070C0C0C0C0C0C0C0C7A
:100200000202020206060606060606060B0B0B0B8A
:100210000B0B0B0B010210202008081020401020AF
:1002200040800201020108040201010204081020BA
:1002300040808040201008040201800402018040B8
:100240002010080402010804020101020408102021
:100250004080010204081020408000000A0B0209BF
:100260000C0D0E0807030401000000000000000050
:10027000000000000000000000000000000000007E
:10028000000000000000121110000000000000003B
:10029000000000000000000000000000000000005E
:1002A000760611241FBECFEFD1E2DEBFCDBF00E046
:1002B0000CBF22E0ACE2B2E001C01D92A135B20752
:1002C000E1F712E0A0E0B2E0ECE3FDE000E00BBFFC
:1002D00002C007900D92AC32B107D9F711E0C1E529
:1002E000D1E000E006C021970109802FFE010E94A5
:1002F0009406C035D10780E00807A9F70E945E0484
:100300000C949C060C9400008150823108F05AC075
:10031000E82FF0E08827E057FE4F8F4F0C949406AB
:10032000B001B401A201A801AC01E201B701BD0115
:10033000C101C701CB01CF01D501D901E201DD0126
:10034000E301E701809180008F778093800008951A
:10035000809180008F7DF9CF80918000877FF5CFDD
:1003600084B58F7784BD089584B58F7DFBCF809150
:10037000B0008F778093B00008958091B0008F7D9A
:10038000F9CF809190008F778093900008958091AD
:1003900090008F7DF9CF80919000877FF5CF80917D
:1003A000A0008F778093A00008958091A0008F7D9A
:1003B000F9CF8091A000877FF5CF809120018F77C2
:1003C000809320010895809120018F7DF9CF809145
:1003D0002001877FF5CFCF93DF93282F30E0F901FD
:1003E000E65AFD4F8491F901EC5EFD4FD491F9017D
:1003F000E253FE4FC491CC23A1F081110E948401ED
:10040000EC2FF0E0EE0FFF1FEC54FE4FA591B491DE
:10041000EC91ED2381E090E009F480E0DF91CF9151
:10042000089580E090E0FACF1F93CF93DF93282FB9
:1004300030E0F901E65AFD4F8491F901EC5EFD4F81
:10044000D491F901E253FE4FC491CC23A9F0162FA9
:1004500081110E948401EC2FF0E0EE0FFF1FE656A1
:10046000FE4FA591B4918FB7F894EC91111108C08B
:10047000D095DE23DC938FBFDF91CF911F9108953C
:10048000DE2BF8CFCF93DF9390E0FC01EC5EFD4FC5
:10049000249182539E4FFC0184918823D1F090E0F7
:1004A000880F991FFC01E058FE4FA591B491FC0103
:1004B000E656FE4FC591D491623071F49FB7F8941F
:1004C0003C91822F809583238C93E8812E2B288367
:1004D0009FBFDF91CF9108958FB7F894EC912E2BA9
:1004E0002C938FBFF6CF3FB7F8948091350290914F
:1004F0003602A0913702B091380226B5A89B05C0FC
:100500002F3F19F00196A11DB11D3FBFBA2FA92F92
:10051000982F8827BC01CD01620F711D811D911D8F
:1005200042E0660F771F881F991F4A95D1F70895FB
:10053000AF92BF92CF92DF92EF92FF920F931F93F1
:10054000CF93DF936C017B018B01040F151FEB012F
:100550005E01AE18BF08C017D10759F06991D601E6
:10056000ED91FC910190F081E02DC6011995892B48
:1005700079F7C501DF91CF911F910F91FF90EF9017
:10058000DF90CF90BF90AF900895089590E080E005
:100590000895CF93DF93EC0160E08E810E941402F6
:1005A00061E08E810E94140260E08E810E9414023C
:1005B0008BE891E00197F1F7DF91CF910895CF9209
:1005C000DF92EF92FF920F931F93CF93DF936C0113
:1005D0007C0187E0E80EF11CD0E0C0E0062F10E0BF
:1005E000B8010C2E02C0759567950A94E2F7617008
:1005F000F70181917F010E9414022196C430D10538
:1006000079F7C601DF91CF911F910F91FF90EF9085
:10061000DF90CF900C94C902CF92DF92EF92FF92BD
:100620000F931F93CF93DF93EC01F62E642F8C81F1
:100630000E9414028D818F3F19F060E00E94140225
:100640000F2D10E08F8584FF25C06E0187E0C80E56
:10065000D11CF12CE12CB8010E2C02C075956795C8
:100660000A94E2F76170F60181916F010E94140211
:10067000FFEFEF1AFF0A88E0E816F10461F7CE01F8
:10068000DF91CF911F910F91FF90EF90DF90CF906E
:100690000C94C902B80184E0759567958A95E1F7D5
:1006A000CE010E94DF026F2DCE01DF91CF911F910D
:1006B0000F91FF90EF90DF90CF900C94DF0240E01D
:1006C000682F89E392E00C940C0381E00E945F03A1
:1006D0008BE39FE10197F1F70895CF93DF93823089
:1006E00029F49091480298609093480280934C02BC
:1006F00010924D0280E480934E0280E180934F027D
:1007000080E58093500261E080913D020E944202A8
:1007100080913E028F3F19F061E00E94420261E049
:1007200080913F020E944202C9E3D2E09E01295318
:1007300032408091480284FD0BC084E090E0219615
:100740002817390744F461E08E810E944202EECFFF
:1007500088E090E0F4CF8BE39DE00197F1F760E053
:1007600080913D020E94140260E080913F020E944D
:10077000140280913E028F3F19F060E00E94140243
:100780008091480284FD34C063E089E392E00E94D6
:10079000DF02CBE4D6E4CE010197F1F763E089E311
:1007A00092E00E94DF022197F1F763E089E392E093
:1007B0000E94DF0283E592E00197F1F762E089E3AE
:1007C00092E00E94DF028091480280620E945F03F3
:1007D00084E0809349028CE00E945F030E946503DD
:1007E00082E080934A0286E0DF91CF910C945F0310
:1007F00080620E945F038BE496E40197F1F7809199
:10080000480280620E945F0383E592E00197F1F75E
:100810008091480280620E945F03D5CF41E00E9430
:100820000C0381E090E008951F920F920FB60F9293
:1008300011242F933F938F939F93AF93BF938091F6
:10084000310290913202A0913302B0913402309182
:10085000300223E0230F2D3758F50196A11DB11D5D
:10086000209330028093310290933202A09333029E
:10087000B09334028091350290913602A0913702F4
:10088000B09138020196A11DB11D8093350290935D
:100890003602A0933702B0933802BF91AF919F9177
:1008A0008F913F912F910F900FBE0F901F90189531
:1008B00026E8230F0296A11DB11DD2CF789484B5EE
:1008C000826084BD84B5816084BD85B5826085BD4C
:1008D00085B5816085BD80916E00816080936E00DA
:1008E00010928100809181008260809381008091CC
:1008F000810081608093810080918000816080937D
:1009000080008091B10084608093B1008091B0003C
:1009100081608093B000809191008260809391000B
:10092000809191008160809391008091900081601E
:10093000809390008091A10082608093A1008091BB
:10094000A10081608093A1008091A00081608093CC
:10095000A00080912101826080932101809121017A
:10096000816080932101809120018160809320012A
:1009700080917A00846080937A0080917A0082600E
:1009800080937A0080917A00816080937A008091D0
:100990007A00806880937A001092C10062E08FE054
:1009A0000E94420262E080E10E94420261E08EE029
:1009B0000E94420282E00E946D0361E08AE00E9490
:1009C000420261E089E00E94420261E088E00E9408
:1009D000420292E6E92E92E0F92EC4E6D0E024E647
:1009E000D22E00E010E080E10E94EB01892BE1F5BE
:1009F0002FB7F8948091310290913202A091330286
:100A0000B09134022FBF40912C0250912D02609181
:100A10002E0270912F02841B950BA60BB70B893CFD
:100A20009105A105B10500F12FB7F894809131022D
:100A300090913202A0913302B09134022FBF809383
:100A40002C0290932D02A0932E02B0932F028FE0E0
:100A50000E94EB015C018EE00E94EB01892B59F0B2
:100A600060E08EE00E9414020115110509F4BBCF6D
:100A70000E940000B8CFAB2809F043C061E08AE0D3
:100A80000E94420260E08AE00E94140261E089E074
:100A90000E94420260E089E00E94140261E088E066
:100AA0000E94420260E088E00E94140261E08EE051
:100AB0000E9414020E9465030E9473022B013C01F4
:100AC00088E2882E912CA12CB12C0E94730264190B
:100AD000750986099709683E734081059105A8F359
:100AE00021E0821A9108A108B10888EE480E83E03F
:100AF000581E611C711C81149104A104B10429F7D2
:100B0000B3CF60E08EE00E94140261E08AE00E94B0
:100B1000420261E08AE00E94140261E089E00E94E2
:100B2000420260E089E00E94140261E088E00E94D5
:100B30004202F7018491EFEFE80FE23108F0CFC0F5
:100B4000F0E08827E955FA4F8F4F0C949406B905C9
:100B5000DD05E205EC05F6056F0600060806100641
:100B60001A0624062E063D0647066F0651065B064A
:100B7000650684B5806884BDD7BC0E94650340E1EA
:100B800050E06CE072E089E392E00E949802E0910C
:100B90004C02E23008F0A8C0E150F0E0E75CFD4F05
:100BA000848980680E945F034EE050E06DE172E04E
:100BB00089E392E00E94980257CF84B5806284BD99
:100BC000D8BCDBCF80918000806880938000D09378
:100BD0008900C0938800D1CF80918000806280938B
:100BE0008000D0938B00C0938A00C7CF8091800093
:100BF000886080938000D0938D00C0938C00BDCF1F
:100C00008091B00080688093B000D092B300B5CFDF
:100C10008091B00080628093B000D092B400ADCFDC
:100C200080919000806880939000D0939900C09349
:100C30009800A3CF80919000806280939000D09321
:100C40009B00C0939A0099CF809190008860809318
:100C50009000D0939D00C0939C008FCF8091A00006
:100C600080688093A0008091A0008F7B8093A0007B
:100C7000D093A900C093A80080CF8091A00080628B
:100C80008093A000D093AB00C093AA0076CF809150
:100C9000A00088608093A000D093AD00C093AC000A
:100CA0006CCF80912001806880932001D09329012E
:100CB000C093280162CF809120018062809320013F
:100CC000D0932B01C0932A0158CF809120018860D6
:100CD00080932001D0932D01C0932C014ECF60E072
:100CE00088E00E94140249CFE1E057CFE9E3F2E047
:100CF0001382128284E092E0918380838CE084836B
:100D00008FEF858387E0868385E0878384E0808713
:100D100083E0818782E08287138614861586168693
:100D2000178681E00C946D03EE0FFF1F881F8BBFA9
:0C0D30000790F691E02D1994F894FFCF85
:100D3C00000000000E049802C602C50255796172CB
:100D4C00693A204B617069204163696B004D6F7487
:0C0D5C006F722043616C69736D617A0056
:00000001FF
