:100000000C9451010C9482010C9482010C94820195
:100010000C9482010C9482010C9482010C94820154
:100020000C9482010C9482010C9482010C94820144
:100030000C9482010C9482010C9482010C94820134
:100040000C9482010C9482010C9482010C94820124
:100050000C9482010C9482010C9482010C94D904BA
:100060000C9482010C9482010C9482010C94820104
:100070000C9482010C9482010C9482010C948201F4
:100080000C9482010C9482010C9482010C948201E4
:100090000C9482010C9482010C9482010C948201D4
:1000A0000C9482010C9482010C9482010C948201C4
:1000B0000C9482010C9482010C9482010C948201B4
:1000C0000C9482010C9482010C9482010C948201A4
:1000D0000C9482010C9482010C9482010C94820194
:1000E0000C9482010C94E6060C94CD060C945507F2
:1000F0000C94E7010C9437070C945F070C94CA0228
:100100000C94BC060C94F8020C94F8060C94F006BF
:100110000C94B4010C94A8010C94D9010C941E0702
:100120000C944B070C94C7010C94B0010C94CF01B4
:100130000C9400070C94E3010C942D070C94AC0173
:100140000C9414070C945B040C94F7020C94CB01F0
:100150000C94A2010C94BD010C9441070C94DC0694
:100160000C94E2010C940A070C94B7010C94C2079A
:100170000C94D5010C94DD010C94C1010C94D206B1
:1001800000002100240027002A002D003000330049
:1001900001010000040107010A01000022002500FE
:1001A00028002B002E003100340002010000050160
:1001B00008010B01000020002300260029002C006C
:1001C0002F003200000100000301060109010505AE
:1001D0000505070508080808020202020A0A0808BD
:1001E00004040404010101010101010103030303EB
:1001F00003030303040707070C0C0C0C0C0C0C0C7A
:100200000202020206060606060606060B0B0B0B8A
:100210000B0B0B0B010210202008081020401020AF
:1002200040800201020108040201010204081020BA
:1002300040808040201008040201800402018040B8
:100240002010080402010804020101020408102021
:100250004080010204081020408000000A0B0209BF
:100260000C0D0E0807030401000000000000000050
:10027000000000000000000000000000000000007E
:10028000000000000000121110000000000000003B
:10029000000000000000000000000000000000005E
:1002A000C20711241FBECFEFD1E2DEBFCDBF00E0F9
:1002B0000CBF12E0A0E0B2E0E2E8F0E100E00BBF2A
:1002C00002C007900D92A436B107D9F722E0A4E648
:1002D000B2E001C01D92AC38B207E1F711E0C1E510
:1002E000D1E000E006C021970109802FFE010E94A5
:1002F0003008C035D10780E00807A9F70E94230520
:100300000C943F080C9400008150823108F05AC0D0
:10031000E82FF0E08827E057FE4F8F4F0C9430080D
:10032000B001B401A201A801AC01E201B701BD0115
:10033000C101C701CB01CF01D501D901E201DD0126
:10034000E301E701809180008F778093800008951A
:10035000809180008F7DF9CF80918000877FF5CFDD
:1003600084B58F7784BD089584B58F7DFBCF809150
:10037000B0008F778093B00008958091B0008F7D9A
:10038000F9CF809190008F778093900008958091AD
:1003900090008F7DF9CF80919000877FF5CF80917D
:1003A000A0008F778093A00008958091A0008F7D9A
:1003B000F9CF8091A000877FF5CF809120018F77C2
:1003C000809320010895809120018F7DF9CF809145
:1003D0002001877FF5CFCF93DF93282F30E0F901FD
:1003E000E65AFD4F8491F901EC5EFD4FD491F9017D
:1003F000E253FE4FC491CC23A1F081110E948401ED
:10040000EC2FF0E0EE0FFF1FEC54FE4FA591B491DE
:10041000EC91ED2381E090E009F480E0DF91CF9151
:10042000089580E090E0FACF1F93CF93DF93282FB9
:1004300030E0F901E65AFD4F8491F901EC5EFD4F81
:10044000D491F901E253FE4FC491CC23A9F0162FA9
:1004500081110E948401EC2FF0E0EE0FFF1FE656A1
:10046000FE4FA591B4918FB7F894EC91111108C08B
:10047000D095DE23DC938FBFDF91CF911F9108953C
:10048000DE2BF8CFCF93DF9390E0FC01EC5EFD4FC5
:10049000249182539E4FFC0184918823D1F090E0F7
:1004A000880F991FFC01E058FE4FA591B491FC0103
:1004B000E656FE4FC591D491623071F49FB7F8941F
:1004C0003C91822F809583238C93E8812E2B288367
:1004D0009FBFDF91CF9108958FB7F894EC912E2BA9
:1004E0002C938FBFF6CF3FB7F89480917002909114
:1004F0007102A0917202B091730226B5A89B05C04B
:100500002F3F19F00196A11DB11D3FBFBA2FA92F92
:10051000982F8827BC01CD01620F711D811D911D8F
:1005200042E0660F771F881F991F4A95D1F70895FB
:100530008F929F92AF92BF92CF92DF92EF92FF92F3
:100540004B015C010E9473026B017C010E947302EB
:100550006C197D098E099F09683E734081059105DC
:10056000A8F321E0821A9108A108B10888EEC80E0C
:1005700083E0D81EE11CF11C81149104A104B10494
:1005800029F7FF90EF90DF90CF90BF90AF909F90B2
:100590008F900895AF92BF92CF92DF92EF92FF9229
:1005A0000F931F93CF93DF936C017B018B01040F9B
:1005B000151FEB015E01AE18BF08C017D10759F037
:1005C0006991D601ED91FC910190F081E02DC60179
:1005D0001995892B79F7C501DF91CF911F910F9163
:1005E000FF90EF90DF90CF90BF90AF900895089567
:1005F00090E080E00895FC0101900020E9F7319738
:10060000AF01481B590BBC0184E792E00C94CA026D
:10061000CF93DF93EC0160E08E810E94140261E0D1
:100620008E810E94140260E08E810E9414028BE889
:1006300091E00197F1F7DF91CF910895CF92DF928A
:10064000EF92FF920F931F93CF93DF936C017C0186
:1006500087E0E80EF11CD0E0C0E0062F10E0B80102
:100660000C2E02C0759567950A94E2F76170F70148
:1006700081917F010E9414022196C430D10579F73F
:10068000C601DF91CF911F910F91FF90EF90DF9006
:10069000CF900C940803CF92DF92EF92FF920F93CA
:1006A0001F93CF93DF93EC01F62E642F8C810E9471
:1006B00014028D818F3F19F060E00E9414020F2D0B
:1006C00010E08F8584FF25C06E0187E0C80ED11C25
:1006D000F12CE12CB8010E2C02C0759567950A9497
:1006E000E2F76170F60181916F010E941402FFEF41
:1006F000EF1AFF0A88E0E816F10461F7CE01DF91F6
:10070000CF911F910F91FF90EF90DF90CF900C94BD
:100710000803B80184E0759567958A95E1F7CE01E5
:100720000E941E036F2DCE01DF91CF911F910F917B
:10073000FF90EF90DF90CF900C941E0340E0682F65
:1007400084E792E00C944B0381E00E949E038BE3CC
:100750009FE10197F1F70895CF93DF93823029F459
:100760009091830298609093830280938702109205
:10077000880280E48093890280E180938A0280E588
:1007800080938B0261E0809178020E944202809106
:1007900079028F3F19F061E00E94420261E080918E
:1007A0007A020E944202C4E7D2E09E0124573240FE
:1007B0008091830284FD0BC084E090E0219628178D
:1007C000390744F461E08E810E944202EECF88E056
:1007D00090E0F4CF8BE39DE00197F1F760E080912A
:1007E00078020E94140260E080917A020E94140252
:1007F000809179028F3F19F060E00E94140280918D
:10080000830284FD34C063E084E792E00E941E030B
:10081000CBE4D6E4CE010197F1F763E084E792E000
:100820000E941E032197F1F763E084E792E00E94A3
:100830001E0383E592E00197F1F762E084E792E01E
:100840000E941E038091830280620E949E0384E0C6
:10085000809384028CE00E949E030E94A40382E0A5
:100860008093850286E0DF91CF910C949E03806295
:100870000E949E038BE496E40197F1F78091830236
:1008800080620E949E0383E592E00197F1F78091D8
:10089000830280620E949E03D5CFE0918702E230FE
:1008A00040F4E150F0E0EC58FD4F848980680C94EE
:1008B0009E03E1E0F7CF41E00E944B0381E090E02E
:1008C00008958F929F92AF92BF92CF92DF92EF9254
:1008D000FF92CF93DF93CDB7DEB7A1970FB6F89411
:1008E000DEBF0FBECDBF6C01990FEE08FF08F7FE0B
:1008F0003EC041E06DE284E792E00E944B03222774
:100900003327A9012C193D094E095F0919A2CE010F
:1009100081967C019AE0892E912CA12CB12CCA01E0
:10092000B901A50194010E94FF07605DF701629380
:100930007F01211531054105510589F790E080E0DF
:10094000309719F0CF010E94FB020196A1960FB6D5
:10095000F894DEBF0FBECDBFDF91CF91FF90EF9037
:10096000DF90CF90BF90AF909F908F900895A70198
:10097000960119A2CE0181967C018AE0882E912CE5
:10098000A12CB12CCA01B901A50194010E94FF0755
:10099000605DF70162937F01211531054105510525
:1009A00089F790E080E0309789F2CF010E94FB0246
:1009B000CDCF1F920F920FB60F9211242F933F931A
:1009C0008F939F93AF93BF9380916C0290916D0230
:1009D000A0916E02B0916F0230916B0223E0230F61
:1009E0002D3758F50196A11DB11D20936B02809300
:1009F0006C0290936D02A0936E02B0936F0280918F
:100A0000700290917102A0917202B09173020196EE
:100A1000A11DB11D8093700290937102A093720288
:100A2000B0937302BF91AF919F918F913F912F919E
:100A30000F900FBE0F901F90189526E8230F029677
:100A4000A11DB11DD2CF789484B5826084BD84B5D8
:100A5000816084BD85B5826085BD85B5816085BDB9
:100A600080916E00816080936E0010928100809171
:100A700081008260809381008091810081608093F9
:100A80008100809180008160809380008091B1001E
:100A900084608093B1008091B00081608093B00049
:100AA000809191008260809391008091910081609B
:100AB000809391008091900081608093900080915C
:100AC000A10082608093A1008091A1008160809349
:100AD000A1008091A00081608093A00080912101FD
:100AE00082608093210180912101816080932101A6
:100AF0008091200181608093200180917A00846040
:100B000080937A0080917A00826080937A0080914D
:100B10007A00816080937A0080917A008068809367
:100B20007A001092C10062E08FE00E94420262E00F
:100B300080E10E94420261E08EE00E94420261E098
:100B40008BE00E94420282E00E94AC0361E08AE0F6
:100B50000E94420261E089E00E94420261E088E076
:100B60000E94420264E670E080E090E00E949802F9
:100B7000C4E6D0E014E644244A9493E0592E612C54
:100B8000712C22242394312C30E0832E30E0932EDC
:100B900000E48FE00E94EB01FF24F394009709F03A
:100BA000F12C20916A02F21619F1892B09F0ABC0E1
:100BB00061E08AE00E94420260E08AE00E94140242
:100BC00061E089E00E94420260E089E00E94140234
:100BD00061E088E00E94420260E088E00E94140226
:100BE0000E94A40368E270E080E090E00E94980216
:100BF000F0926A0280E10E94EB01892B09F041C06A
:100C00002FB7F89480916C0290916D02A0916E02C2
:100C1000B0916F022FBF40916402509165026091C4
:100C2000660270916702841B950BA60BB70B893C7B
:100C30009105A105B10528F12FB7F89480916C02B8
:100C400090916D02A0916E02B0916F022FBF8093C0
:100C5000640290936502A0936602B09367028EE0EF
:100C60000E94EB0160E0892B49F480916A0288239D
:100C700041F080910002882321F061E08EE00E9423
:100C8000140280917B00877F80937B0000937C001F
:100C900080917A00806480937A0080917A0086FD4A
:100CA000FCCFA0917800B091790024E630E00E945A
:100CB0003808A30192010E94E0076901C90125508B
:100CC00031092530310508F0FFC061E08BE00E945A
:100CD00014020E94A4038DE292E00E94FB020E9493
:100CE0004D0480E492E00E94FB02C6010E94610470
:100CF00030926902209268028114910409F449CF6C
:100D00000E94000045CF60E08EE00E94140261E086
:100D10008AE00E94420261E08AE00E94140261E0DF
:100D200089E00E94420260E089E00E94140261E0D2
:100D300088E00E944202E2E6F2E08491EFEFE80FE1
:100D4000E23108F0BCC0F0E08827E655F94F8F4F3C
:100D50000C943008BC06CD06D206DC06E6065F071A
:100D6000F006F80600070A0714071E072D073707C5
:100D70005F0741074B07550784B5806884BD17BDE1
:100D80000E94A4038DE092E00E94FB020E944D04A9
:100D90008EE192E00E94FB022BCF84B5806284BD7D
:100DA00018BDEECF80918000806880938000D09342
:100DB0008900C0938800E4CF809180008062809396
:100DC0008000D0938B00C0938A00DACF809180009E
:100DD000886080938000D0938D00C0938C00D0CF2A
:100DE0008091B00080688093B0001093B300C8CFAA
:100DF0008091B00080628093B0001093B400C0CFA7
:100E000080919000806880939000D0939900C09367
:100E10009800B6CF80919000806280939000D0932C
:100E20009B00C0939A00ACCF809190008860809323
:100E30009000D0939D00C0939C00A2CF8091A00011
:100E400080688093A0008091A0008F7B8093A00099
:100E5000D093A900C093A80093CF8091A000806296
:100E60008093A000D093AB00C093AA0089CF80915B
:100E7000A00088608093A000D093AD00C093AC0028
:100E80007FCF80912001806880932001D093290139
:100E9000C093280175CF809120018062809320014A
:100EA000D0932B01C0932A016BCF809120018860E1
:100EB00080932001D0932D01C0932C0161CF60E07D
:100EC00088E00E9414025CCF960121503109243041
:100ED000310588F585E0A82EB12C60E08BE00E94FA
:100EE000140264E670E080E090E00E94980261E005
:100EF0008BE00E94140264E670E080E090E00E94C3
:100F00009802F1E0AF1AB10841F70E94A4038DE204
:100F100092E00E94FB020E944D048CE392E00E944A
:100F2000FB02C6010E94610464E670E080E090E08C
:100F30000E949802DDCE0097E9F4809168029091BA
:100F40006902039789F360E08BE00E94140210921B
:100F5000000260E08EE00E9414020E94A4038AE472
:100F600092E00E94FB020E944D0486E592E00E94FE
:100F7000FB02DACF0B97C4F281E0809300020E945B
:100F8000A403D2CFE4E7F2E01382128285E092E07C
:100F9000918380838CE084838FEF858387E08683D1
:100FA00085E0878384E0808783E0818782E0828791
:100FB0001386148615861686178681E00C94AC037A
:100FC000052E97FB1EF400940E94F70757FD07D0EB
:100FD0000E94FF0707FC03D04EF40C94F7075095CE
:100FE0004095309521953F4F4F4F5F4F0895909515
:100FF0008095709561957F4F8F4F9F4F0895A1E227
:101000001A2EAA1BBB1BFD010DC0AA1FBB1FEE1F82
:10101000FF1FA217B307E407F50720F0A21BB30BCD
:10102000E40BF50B661F771F881F991F1A9469F749
:1010300060957095809590959B01AC01BD01CF01A5
:101040000895A29FB001B39FC001A39F700D811DA1
:101050001124911DB29F700D811D1124911D0895C1
:10106000EE0FFF1F881F8BBF0790F691E02D19949C
:101070000E942108B7FF0895821B930B0895F894EE
:02108000FFCFA0
:1010820001000000005B04CA02F802F70255796110
:1010920072693A204B617069204163696B004D6F40
:1010A200746F722043616C69736D617A0059616B70
:1010B200697420536576697965736900436F6B20A3
:1010C200447573756B202D20250059616B6974205E
:1010D2004269747469004D6F746F72204B61706164
:0410E2006E646900CF
:00000001FF
